:100000000C9468000C9490000C9490000C94900058
:100010000C9490000C9490000C9490000C947E062C
:100020000C9490000C9490000C9490000C94900010
:100030000C9490000C9490000C9490000C94900000
:100040000C94B2040C9490000C9422050C94FC04C3
:100050000C9490000C9490000C9490000C949000E0
:100060000C9454050C94900000000000240027001C
:100070002A0000000000250028002B0000000000DE
:1000800023002600290004040404040404040202DA
:100090000202020203030303030301020408102007
:1000A0004080010204081020010204081020000012
:1000B0000008000201000003040700000000000027
:1000C00000001F1C1F1E1F1E1F1F1E1F1E1F640C53
:1000D00011241FBECFEFD8E0DEBFCDBF11E0A0E0FE
:1000E000B1E0EEE8FFE102C005900D92A63AB1073B
:1000F000D9F723E0A6EAB1E001C01D92A13AB20708
:10010000E1F710E0C8E6D0E004C02197FE010E94AC
:10011000BA0FC736D107C9F70E94880A0C94C50FD9
:100120000C9400000895FC0142835383648375831B
:1001300086819781A085B185480F591F6A1F7B1F53
:1001400042875387648775870895CF92DF92EF9235
:10015000FF920F931F93CF93DF936C017A018B0172
:10016000C0E0D0E0CE15DF0581F0D8016D918D01A2
:10017000D601ED91FC910190F081E02DC601099529
:10018000892B11F02196EECF7E01C701DF91CF912F
:100190001F910F91FF90EF90DF90CF9008950F93F4
:1001A0001F93FC010285138524853585401B510B67
:1001B000620B730B77FD02C0808901C080E01F9144
:1001C0000F910895FC01908190539A3008F090E0CF
:1001D000818180532AE0929F800D1124089585ED3E
:1001E0008093BC008091BC0084FDFCCF1092400243
:1001F00008954091C801262F30E0240F311D21328F
:100200003105DCF4209140022430C9F4FC0180E087
:1002100090E0861758F43091C8012191DC01A8556F
:10022000BE4FA30FB11D2C930196F3CF8091C8014F
:10023000680F6093C80180E0089581E0089582E02E
:1002400008950895E091F9018091F801E81730F4DC
:10025000F0E0E650FE4F808190E008958FEF9FEF31
:1002600008959091F9018091F801981750F4E92FC1
:10027000F0E0E650FE4F208130E09F5F9093F9015F
:1002800002C02FEF3FEFC90108958091F80190E07F
:100290002091F901821B91090895CF92DF92EF928C
:1002A000FF920F931F93CF93DF937C01CB018A01C1
:1002B00020914102222389F0EB016B01C40ED51E6F
:1002C000CC15DD0569F06991D701ED91FC910190A4
:1002D000F081E02DC7010995F3CF642F0E94F9004A
:1002E000C801DF91CF911F910F91FF90EF90DF90A8
:1002F000CF900895CF93DF931F92CDB7DEB7698378
:10030000209141022223D1F020916402203240F05A
:1003100021E030E0FC013383228380E090E015C0CF
:1003200080914202E82FF0E0ED5BFD4F99819083D0
:100330008F5F809342028093640205C061E0CE012A
:1003400001960E94F90081E090E00F90DF91CF913B
:100350000895089580E090E0089582E480937C0001
:1003600080917A00806480937A0080917A0086FD83
:10037000FCCFA091780080917900B0E0B82B24E602
:1003800030E00E94B30F2FEF33E040E050E00E94D6
:100390003F0D3093A7012093A60108950E94C00F3E
:1003A00085E692E00E947F0721E0892B09F420E096
:1003B000822F0895DF92EF92FF920F931F93CF93B6
:1003C000DF9381E08093410288E68093630210927C
:1003D00042021092640260E082E093E00E947A019F
:1003E00081E00E943A0887E090E00E94960882E04F
:1003F00093E00E9431018F77982F92959F70CAEFFA
:10040000E82E9C9FE00C112482E093E00E943101D1
:100410009C01332794E0359527959A95E1F7082FAD
:10042000C29F000D112482E093E00E9431019C01E3
:10043000332744E0359527954A95E1F7F82EC29F7A
:10044000F00C112482E093E00E94310182E093E0FD
:100450000E9431019C01332754E0359527955A9528
:10046000E1F7182FC29F100D112482E093E00E9443
:1004700031019C01332764E0359527956A95E1F7B2
:10048000D82EC29FD00C112482E093E00E9431014B
:100490009C01332774E0359527957A95E1F7C29F43
:1004A000800D1124CCE1D3E08883D9821A83FB82AA
:1004B0000C83ED82ABEEB1E02AE08F2D622F0E941B
:1004C0009F0FE82FF0E0E050FF4F80818C93E92FE1
:1004D000F0E0E050FF4F808111968C931197802FB0
:1004E0000E949F0FE82FF0E0E050FF4F80811296AE
:1004F0008C931297E92FF0E0E050FF4F8081139624
:100500008C93812F0E9433088FE20E949309898186
:100510000E9433088FE20E949309688170E0605363
:10052000784F072E000C880B990B4AE00E94F207C7
:1005300080E20E9493098B810E9433088AE30E9423
:1005400093098C810E9433088AE30E9493098D816C
:100550000E9433088AE591E0DF91CF911F910F91BE
:10056000FF90EF90DF900C94E0073FB7F8948091F4
:10057000F4019091F501A091F601B091F70126B533
:10058000A89B05C02F3F19F00196A11DB11D3FBFCB
:10059000BA2FA92F982F8827820F911DA11DB11D59
:1005A000BC01CD0142E0660F771F881F991F4A9555
:1005B000D1F708952FB7F8946091F0017091F1018F
:1005C0008091F2019091F3012FBF08958F929F9235
:1005D000AF92BF92CF92DF92EF92FF920F931F9351
:1005E000CF93DF93EC01EE85FF85309709F00995F5
:1005F0000E94DA024B015C018E016E012EE1C20EF7
:10060000D11CE12CF12C89A99AA9E816F9060CF164
:100610000E94DA026E837F83888799870A811B8113
:100620002C813D81DC01CB01800F911FA21FB31FE4
:100630008A879B87AC87BD87DF91CF911F910F91F0
:10064000FF90EF90DF90CF90BF90AF909F908F90F2
:100650000895D80153968D919C9154970097C1F0BD
:10066000BFEFEB1AFB0ADC01ED91FC910280F381F4
:10067000E02DB501A4010995882351F0F801838983
:100680009489DC01ED91FC910480F581E02D0995C0
:100690000E5F1F4FC016D10609F0B5CFB9CF0F932B
:1006A0001F93CF93DF93EC01EE85FF85309709F020
:1006B00009950E94DA026E837F83888799870A8171
:1006C0001B812C813D81DC01CB01800F911FA21F7A
:1006D000B31F8A879B87AC87BD87DF91CF911F911E
:1006E0000F9108958F929F92AF92BF92CF92DF9217
:1006F000EF92FF921F93CF93DF930E94DA026B0178
:100700007C0161E0809114030E94E3096AEF70E0CC
:1007100080E090E00E944E0A0E94DA028090170367
:1007200090901803A0901903B0901A0368157905EA
:100730008A059B0540F4109217031092180310923B
:10074000190310921A0320911B03211114C08090E9
:10075000170390901803A0901903B0901A03DC01BE
:10076000CB0188199909AA09BB09803D9740A105C9
:10077000B10508F4B5C010921B030E94DA02609321
:100780001703709318038093190390931A03109220
:100790001203109211031092100310920F03109283
:1007A0000E0361E0809114030E94120A60E08091C0
:1007B00014030E94E30964E170E080E090E00E948D
:1007C0004E0A61E0809114030E94E3098BE990E0F6
:1007D0000197F1F760E0809114030E94120A10E083
:1007E00081E0C0E0D0E0A82EB12C809114030E94DB
:1007F000BA098A159B0519F4DF5FDF3FB1F78091D5
:1008000014030E94BA09DF3FC1F0C43098F0C0FD64
:1008100011C0E12FE695E695E695F0E0E25FFC4F2A
:100820009081990F9083209116032D1710F49160F9
:1008300090831F5FCF5FC535A9F61832D0F02091A5
:10084000120330E040910E0380910F0390E0840F7B
:10085000911D40911003840F911D40911103840F4D
:10086000911D99272817390721F43AC08B3008F0D9
:1008700043C08DE591E00E94E00760E070E080EC0D
:100880009FE70E946E0E4B015C01161617060CF0D6
:100890005DC087E691E00E94E007B401990C880BE7
:1008A000990B4AE00E94F20785E791E00E94DF0879
:1008B0000E94DA026C197D098E099F094AE00E94A4
:1008C000F20789E791E0DF91CF911F91FF90EF90C0
:1008D000DF90CF90BF90AF909F908F900C94DF08E7
:1008E000809115038B3011F66091100370E080E069
:1008F00090E00E94A40EC5CF8551823008F0B9CF98
:10090000C09110036C2F6F7770E080E090E00E9440
:10091000A60E20E030E040E853E40E94320F4B0185
:100920005C016091110370E080E090E00E94A60EEF
:10093000A50194010E94900D20E030E040E251E4D6
:100940000E94FC0DC7FF9DCF90589BCFDF91CF91A8
:100950001F91FF90EF90DF90CF90BF90AF909F904E
:100960008F9008951F920F920FB60F9211242F931C
:100970003F938F939F93AF93BF938091F00190919A
:10098000F101A091F201B091F3013091EF0123E068
:10099000230F2D3720F40196A11DB11D05C026E8B7
:1009A000230F0296A11DB11D2093EF018093F0014A
:1009B0009093F101A093F201B093F3018091F401BF
:1009C0009091F501A091F601B091F7010196A11D5A
:1009D000B11D8093F4019093F501A093F601B093BB
:1009E000F701BF91AF919F918F913F912F910F9000
:1009F0000FBE0F901F9018951F920F920FB60F9277
:100A000011242F933F934F935F936F937F938F9313
:100A10009F93AF93BF93EF93FF9385E692E00E947D
:100A20002409FF91EF91BF91AF919F918F917F9199
:100A30006F915F914F913F912F910F900FBE0F904B
:100A40001F9018951F920F920FB60F9211242F939B
:100A50008F939F93EF93FF93E0917502F09176024D
:100A60008081E0917B02F0917C0282FD12C0908136
:100A700080917E028F5F8F7320917F02821751F0E9
:100A8000E0917E02F0E0EB59FD4F958F80937E025E
:100A900001C08081FF91EF919F918F912F910F90D5
:100AA0000FBE0F901F9018951F920F920FB60F92C6
:100AB00011242F933F934F935F936F937F938F9363
:100AC0009F93AF93BF93EF93FF938091B900887F7B
:100AD000803609F49CC068F5883209F45BC090F454
:100AE000803109F454C038F4882309F4F2C0883006
:100AF00009F44DC0F2C0883109F44CC0803209F4C9
:100B00005DC0EBC0803409F468C048F4803309F458
:100B100055C0883309F0E1C080933E02D4C08035CF
:100B200009F44FC0883509F45DC0883409F0D5C098
:100B3000D2C0883909F4C3C0A8F4883709F467C063
:100B400038F4883609F463C0803709F460C0C5C042
:100B5000883809F4B4C0803909F45FC0803809F0DE
:100B6000BCC05BC0803B09F484C038F4803A09F40F
:100B700066C0883A09F47DC0B0C0803C09F4A3C0C7
:100B8000883C09F4A0C0883B09F486C0A6C08091C7
:100B90001B0210C090913D0280913C02981770F5A5
:100BA000E0913D0281E08E0F80933D02F0E0E45E33
:100BB000FD4F80818093BB0085EC82C080933E0214
:100BC0008AC0E0913D0281E08E0F80933D028091CA
:100BD000BB00F0E0E45EFD4F808390913D02809188
:100BE0003C026AC0E0913D0281E08E0F80933D029D
:100BF0008091BB00F0E0E45EFD4F808380913F0276
:100C0000811169C081E080931A0284EA5DC083E0AB
:100C1000809340021092EA01CFCF8091EA018032A6
:100C200008F04DC0E091EA0181E08E0F8093EA0167
:100C30008091BB00F0E0E653FE4F8083BDCF85EC92
:100C40008093BC00109240028091EA01803230F41F
:100C5000E091EA01F0E0E653FE4F10826091EA0174
:100C600070E08AEC91E0E0E0F0E009951092EA0192
:100C700034C084E0809340021092C9011092C801F0
:100C8000E0E0F0E009958091C801811105C081E0A4
:100C90008093C8011092A801E091C90181E08E0FF4
:100CA0008093C901F0E0E855FE4F80818093BB003E
:100CB0009091C9018091C801981708F47DCF85E80B
:100CC0008093BC000AC085EC8093BC001092400267
:100CD00004C010923E020E94EF00FF91EF91BF917D
:100CE000AF919F918F917F916F915F914F913F91C4
:100CF0002F910F900FBE0F901F9018951F920F927B
:100D00000FB60F9211244F925F926F927F928F9243
:100D10009F92AF92BF92CF92DF92EF92FF920F938A
:100D20001F932F933F934F935F936F937F938F9373
:100D30009F93AF93BF93CF93DF93EF93FF933BEEDC
:100D4000632E31E0732EC0E0D0E044E6842E912C77
:100D5000A12CB12C52E2452E51E0552E2AE0E22E74
:100D600021E0F22E00E010E0F7018081F2E0EF0ECA
:100D7000F11C61E0C017D10709F060E00E94E309AF
:100D80000F5F1F4F0430110579F702E111E0680190
:100D9000E12CF12CF6018081F2E0CF0ED11CF301A1
:100DA000608170E00E2C02C0759567950A94E2F799
:100DB00061707727F1E06F270E94E3098FEFE81A4F
:100DC000F80A98E0E916F10429F7E090A601F090FE
:100DD000A70128EE33E0D7010E94B30FA5019401CB
:100DE0000E943F0D2230310548F0220F331F220FA1
:100DF000331F25503109C9010197F1F740165106FB
:100E000041F0F80180810E5F1F4F61E00E94E3090D
:100E1000F5CF9701ACE3B6EF0E94AB0FA5019401AB
:100E20000E943F0DDA01C9018C53964FAF4FBF4F5F
:100E30008230910550F09C01220F331F220F331F87
:100E400025503109C9010197F1F72196FFEF6F1A7B
:100E50007F0AC430D10509F081CFFF91EF91DF9176
:100E6000CF91BF91AF919F918F917F916F915F9142
:100E70004F913F912F911F910F91FF90EF90DF9035
:100E8000CF90BF90AF909F908F907F906F905F902A
:100E90004F900F900FBE0F901F901895FC01538D2F
:100EA000448D252F30E0842F90E0821B930B541744
:100EB00010F0CF96089501970895FC01918D828DD1
:100EC000981761F0828DDF01A80FB11D5D968C919E
:100ED000928D9F5F9F73928F90E008958FEF9FEFA9
:100EE0000895FC01918D828D981731F0828DE80F65
:100EF000F11D858D90E008958FEF9FEF0895FC011F
:100F0000918D228D892F90E0805C9F4F821B9109EB
:100F10008F739927089580E090E0892B29F00E9433
:100F2000D00181110C9400000895833081F028F4E1
:100F3000813099F08230A1F008958730A9F088308F
:100F4000B9F08430D1F4809180008F7D03C080910E
:100F500080008F7780938000089584B58F7702C0DA
:100F600084B58F7D84BD08958091B0008F7703C0D4
:100F70008091B0008F7D8093B0000895CF93DF9370
:100F8000EC0186E291E09983888381E0888B1F865B
:100F90001E861A861B861C861D860E94DA026E83B8
:100FA0007F8388879987DA8BC98B1A821B821C8280
:100FB0001D826A877B878C879D87DF91CF910895FB
:100FC000009769F0FC0101900020E9F73197AF012B
:100FD000481B590BBC0185E692E00C94A50080E00B
:100FE00090E008958F929F92AF92BF920F931F93BC
:100FF000CF93DF93CDB7DEB7A1970FB6F894DEBFDE
:101000000FBECDBF19A2423008F44AE08E010F5D39
:101010001F4F842E912CA12CB12CA50194010E946C
:101020005E0DE62FB901CA0101501109EA3014F42E
:10103000E05D01C0E95CD801EC93232B242B252B28
:1010400061F7C8010E94E007A1960FB6F894DEBFD1
:101050000FBECDBFDF91CF911F910F91BF90AF9089
:101060009F908F900895682F70E080E090E04AE0B4
:101070000C94F207282F30916402313208F04AC0F4
:10108000809140028111FCCF9091630242E0409335
:10109000400220933F022FEF20933E0210923D0228
:1010A00030933C02E3E4F2E0ACE1B2E020E032173E
:1010B00021F041914D932F5FFACF10921B022091A6
:1010C0001B02990F922B90931B0290911A02913060
:1010D00061F410921A0290911B029093BB009091C0
:1010E000BC0093FDF8CF95EC01C095EE9093BC0049
:1010F000909140029230E1F390913E029F3F79F04F
:1011000080913E02803241F080913E02803331F086
:1011100084E005C081E003C082E001C083E010925A
:10112000420210926402109241020895909140028E
:101130009111FCCF982F813208F090E281E08093EA
:10114000400280933F022FEF20933E0210923D0217
:10115000290F20933C0280931B0280911B02806D1B
:1011600080931B0280911A02813061F410921A025E
:1011700080911B028093BB008091BC0083FDF8CF5F
:1011800085EC01C085EE8093BC00809140028130E7
:10119000E1F380913D02891710F490913D02ECE15A
:1011A000F2E0AAEFB1E080E0891721F021912D93C0
:1011B0008F5FFACF1092F9018093F8010895CF93D1
:1011C000DF930E94E007EC018AE591E00E94E007CE
:1011D0008C0F9D1FDF91CF910895CF93DF93A1E8EE
:1011E000B3E0FD01C191D191209741F049895A891D
:1011F000EC0129893A894217530711F1D3E0EF39FD
:10120000FD0781F720E030E04D915D91452B89F499
:10121000220F331FF901E259FC4F948B838B80918D
:101220009F039091A00301969093A00380939F0346
:1012300007C02F5F3F4F2F30310531F780E001C0ED
:1012400081E0DF91CF910895FC01848DDF01A80F2B
:10125000B11DA35ABF4F2C91848D90E001968F73DE
:101260009927848FA689B7892C93A089B1898C91FD
:10127000837080648C93938D848D981306C002884C
:10128000F389E02D80818F7D80830895EF92FF9216
:101290000F931F93CF93DF93EC0181E0888F9B8D99
:1012A0008C8D981305C0E889F989808185FD26C059
:1012B000F62E0B8D10E00F5F1F4F0F731127E02EDE
:1012C0008C8DE8120CC00FB607FCFACFE889F989BB
:1012D000808185FFF5CFCE010E942409F1CF8B8D4F
:1012E000FE01E80FF11DE35AFF4FF0829FB7F8941B
:1012F0000B8FEA89FB89808180620AC09FB7F894CE
:10130000EE89FF896083E889F98980818370806430
:1013100080839FBF81E090E0DF91CF911F910F917B
:10132000FF90EF900895682F85E692E00C944609AF
:10133000CF93DF93EC01888D8823C9F0EA89FB897C
:10134000808185FD05C0A889B9898C9186FD0FC073
:101350000FB607FCF5CF808185FFF2CFA889B98948
:101360008C9185FFEDCFCE010E942409E7CFDF915C
:10137000CF910895CF93DF93282F30E0F901E25504
:10138000FF4F8491F901E656FF4FD491F901EA57D6
:10139000FF4FC491CC2391F081110E949507EC2F4F
:1013A000F0E0EE0FFF1FE458FF4FA591B491EC91D0
:1013B000ED2381E090E021F480E002C080E090E045
:1013C000DF91CF9108951F93CF93DF93282F30E0C3
:1013D000F901E255FF4F8491F901E656FF4FD49190
:1013E000F901EA57FF4FC491CC23C1F0162F8111A8
:1013F0000E949507EC2FF0E0EE0FFF1FEE58FF4F15
:10140000A591B4919FB7F894111104C08C91D09517
:10141000D82302C0EC91DE2BDC939FBFDF91CF91EC
:101420001F910895CF93DF9390E0FC01E656FF4FA4
:101430002491FC01EA57FF4F8491882361F190E0E9
:10144000880F991FFC01E859FF4FC591D491FC0109
:10145000EE58FF4FA591B491611109C09FB7F89460
:101460008881209582238883EC912E230BC06230E3
:1014700061F49FB7F8948881322F30958323888355
:10148000EC912E2B2C939FBF06C08FB7F894E88168
:101490002E2B28838FBFDF91CF9108958F929F923B
:1014A000AF92BF92CF92DF92EF92FF926B017C01DD
:1014B0000E94B5024B015C01C114D104E104F104A6
:1014C000F1F00E94B502DC01CB0188199909AA0943
:1014D000BB09883E9340A105B10570F321E0C21A13
:1014E000D108E108F10888EE880E83E0981EA11C5F
:1014F000B11CC114D104E104F10419F7DDCFFF9050
:10150000EF90DF90CF90BF90AF909F908F90089515
:10151000789484B5826084BD84B5816084BD85B5CE
:10152000826085BD85B5816085BD80916E008160DA
:1015300080936E0010928100809181008260809380
:101540008100809181008160809381008091800082
:101550008160809380008091B10084608093B100AD
:101560008091B00081608093B00080917A008460A7
:1015700080937A0080917A00826080937A008091D3
:101580007A00816080937A0080917A0080688093ED
:101590007A001092C100C0E0D0E002E111E0C83052
:1015A000D10570F4F801F0800E5F1F4F61E08F2DC0
:1015B0000E94120A61E08F2D0E94E3092196EFCF6D
:1015C000C0E0D0E00AE011E0C430D10570F4F801C9
:1015D000F0800E5F1F4F61E08F2D0E94120A60E0C5
:1015E0008F2D0E94E3092196EFCFDD24D394D09272
:1015F0004102D8E6D0936302109242021092640234
:1016000060E082E093E00E947A0181E00E943A0863
:1016100081E090E00E94960882E093E00E94310110
:1016200087FF7DC08CE791E00E94DF0889E991E0A7
:101630000E94E200C82F84E991E00E94E200182F86
:101640008CE991E00E94E200082F8FE991E00E946E
:10165000E200F82E82EA91E00E94E200E82ED092A9
:101660004102D0936302109242021092640260E041
:1016700082E093E00E947A01DAE08E2D6D2F0E94C5
:101680009F0F682F660F860F880F682F6E0D82E000
:1016900093E00E947A018F2D6D2F0E949F0F682F7B
:1016A000660F860F880F682F6F0D82E093E00E940F
:1016B0007A01802F6D2F0E949F0F682F660F860F73
:1016C000880F682F600F82E093E00E947A0160E04B
:1016D00082E093E00E947A01812F6D2F0E949F0F7C
:1016E000682F660F860F880F682F610F82E093E0E6
:1016F0000E947A0161E082E093E00E947A018C2FDF
:101700006D2F0E949F0F682F660F680F660F6C0F7A
:1017100082E093E00E947A0181E00E943A088AED1B
:1017200091E090936A038093690388EE93E0A0E0D0
:10173000B0E080935D0390935E03A0935F03B0934A
:1017400060038091610390916203A0916303B09163
:10175000640388519C4FAF4FBF4F809365039093B4
:101760006603A0936703B09368038DEA91E09093BA
:1017700057038093560384E690E0A0E0B0E08093A6
:101780004A0390934B03A0934C03B0934D03809175
:101790004E0390914F03A0915003B09151038C5987
:1017A0009F4FAF4FBF4F8093520390935303A0932B
:1017B0005403B093550382E990E0909344038093DF
:1017C00043038AEF90E0A0E0B0E08093370390936A
:1017D0003803A0933903B0933A0380913B0390916F
:1017E0003C03A0913D03B0913E0386509F4FAF4F05
:1017F000BF4F80933F0390934003A0934103B09366
:10180000420382E793E0909331038093300388E8AA
:1018100093E1A0E0B0E08093240390932503A0938C
:101820002603B09327038091280390912903A09168
:101830002A03B0912B0388579C4EAF4FBF4F809324
:101840002C0390932D03A0932E03B0932F038BE5CD
:1018500093E00E94ED0888E493E00E94ED0885E3A0
:1018600093E00E94ED0882E293E00E94ED08F89474
:101870001092B0001092B1001092B2008CEB8093E5
:10188000B3008091B00082608093B0008091B1007D
:1018900082608093B10080917000826080937000BC
:1018A00078948AE78093EB018EEE8093EC018CE7CD
:1018B0008093ED018CE08093EE018EE693E00E9430
:1018C000E6020E948B07F9CF10926802109267021D
:1018D00088EE93E0A0E0B0E08093690290936A0202
:1018E000A0936B02B0936C0220E331E03093660268
:1018F0002093650225EC30E0309372022093710250
:1019000024EC30E0309374022093730220EC30E03A
:10191000309376022093750221EC30E03093780208
:101920002093770222EC30E030937A022093790200
:1019300026EC30E030937C0220937B0210927E02F2
:1019400010927F0210928002109281021092050381
:10195000109204038093060390930703A093080357
:10196000B093090382E491E0909303038093020310
:101970008EE693E00E94BE0784E591E090936F03AA
:1019800080936E031092A00310929F03E1E8F3E0AE
:101990001192119283E0EF39F807D1F7109270039A
:1019A000109271031092720310927303809174036A
:1019B00090917503A0917603B0917703809378039B
:1019C00090937903A0937A03B0937B038BE593E024
:1019D0000E94BE0788E493E00E94BE0785E393E07F
:1019E0000E94BE0782E293E00E94BE0780E18093DE
:1019F00021038CE18093200386E080931F0340E065
:101A000081E697E9542F537021E009F020E061E06E
:101A1000640F30E0F901E359FE4F8E179F0730F055
:101A2000821B930B8D569140462FECCF40931C03A5
:101A300021E0E22FF0E0EF53FF4FE491511103C09A
:101A4000223009F4EF5FF0E031E0320F8E179F078C
:101A500020F08E1B9F0B232FECCF20931D038F5F55
:101A600080931E038EE0809314038BE08093150314
:101A700086E08093160381E080931B030895052E72
:101A800097FB1EF400940E94560D57FD07D00E944C
:101A90005E0D07FC03D04EF40C94560D5095409506
:101AA000309521953F4F4F4F5F4F0895909580950A
:101AB000709561957F4F8F4F9F4F0895A1E21A2E29
:101AC000AA1BBB1BFD010DC0AA1FBB1FEE1FFF1FE2
:101AD000A217B307E407F50720F0A21BB30BE40B32
:101AE000F50B661F771F881F991F1A9469F7609579
:101AF0007095809590959B01AC01BD01CF01089533
:101B0000A29FB001B39FC001A39F700D811D11243E
:101B1000911DB29F700D811D1124911D0895505883
:101B2000BB27AA270E94A70D0C94F80E0E94EA0E6C
:101B300038F00E94F10E20F039F49F3F19F426F49A
:101B40000C94E70E0EF4E095E7FB0C94E10EE92F00
:101B50000E94090F58F3BA176207730784079507A5
:101B600020F079F4A6F50C942B0F0EF4E0950B2ED3
:101B7000BA2FA02D0B01B90190010C01CA01A001DF
:101B80001124FF27591B99F0593F50F4503E68F13A
:101B90001A16F040A22F232F342F4427585FF3CF7B
:101BA000469537952795A795F0405395C9F77EF44C
:101BB0001F16BA0B620B730B840BBAF09150A1F095
:101BC000FF0FBB1F661F771F881FC2F70EC0BA0F1B
:101BD000621F731F841F48F4879577956795B795A3
:101BE000F7959E3F08F0B0CF9395880F08F099279E
:101BF000EE0F9795879508950E94100E0C94F80E9D
:101C00000E94F10E58F00E94EA0E40F029F45F3F66
:101C100029F00C94E10E51110C942C0F0C94E70E4A
:101C20000E94090F68F39923B1F3552391F3951B93
:101C3000550BBB27AA2762177307840738F09F5FED
:101C40005F4F220F331F441FAA1FA9F335D00E2E5A
:101C50003AF0E0E832D091505040E695001CCAF7C7
:101C60002BD0FE2F29D0660F771F881FBB1F26178A
:101C700037074807AB07B0E809F0BB0B802DBF0161
:101C8000FF2793585F4F3AF09E3F510578F00C9430
:101C9000E10E0C942C0F5F3FE4F3983ED4F386954D
:101CA00077956795B795F7959F5FC9F7880F911D51
:101CB0009695879597F90895E1E0660F771F881F3D
:101CC000BB1F621773078407BA0720F0621B730BF0
:101CD000840BBA0BEE1F88F7E09508950E94750EED
:101CE0006894B1110C942C0F08950E94110F88F084
:101CF0009F5798F0B92F9927B751B0F0E1F0660FD0
:101D0000771F881F991F1AF0BA95C9F714C0B13010
:101D100091F00E942B0FB1E008950C942B0F672FC8
:101D2000782F8827B85F39F0B93FCCF3869577953F
:101D30006795B395D9F73EF4909580957095619528
:101D40007F4F8F4F9F4F0895E89409C097FB3EF453
:101D500090958095709561957F4F8F4F9F4F9923F8
:101D6000A9F0F92F96E9BB279395F6958795779576
:101D70006795B795F111F8CFFAF4BB0F11F460FF36
:101D80001BC06F5F7F4F8F4F9F4F16C0882311F08E
:101D900096E911C0772321F09EE8872F762F05C0A2
:101DA000662371F096E8862F70E060E02AF09A953D
:101DB000660F771F881FDAF7880F9695879597F932
:101DC000089597F99F6780E870E060E008959FEFBD
:101DD00080EC089500240A941616170618060906C2
:101DE000089500240A941216130614060506089591
:101DF000092E0394000C11F4882352F0BB0F40F419
:101E0000BF2B11F460FF04C06F5F7F4F8F4F9F4F58
:101E1000089557FD9058440F551F59F05F3F71F0DA
:101E20004795880F97FB991F61F09F3F79F0879541
:101E30000895121613061406551FF2CF4695F1DFCA
:101E400008C0161617061806991FF1CF869571055A
:101E5000610508940895E894BB2766277727CB018E
:101E600097F908950E94450F0C94F80E0E94EA0E0F
:101E700038F00E94F10E20F0952311F00C94E10E41
:101E80000C94E70E11240C942C0F0E94090F70F390
:101E9000959FC1F3950F50E0551F629FF001729F0F
:101EA000BB27F00DB11D639FAA27F00DB11DAA1F1E
:101EB000649F6627B00DA11D661F829F2227B00D6B
:101EC000A11D621F739FB00DA11D621F839FA00DF6
:101ED000611D221F749F3327A00D611D231F849F46
:101EE000600D211D822F762F6A2F11249F5750409D
:101EF0009AF0F1F088234AF0EE0FFF1FBB1F661F18
:101F0000771F881F91505040A9F79E3F510580F0E0
:101F10000C94E10E0C942C0F5F3FE4F3983ED4F345
:101F2000869577956795B795F795E7959F5FC1F784
:101F3000FE2B880F911D9695879597F90895991B0B
:101F400079E004C0991F961708F0961B881F7A95B0
:101F5000C9F7809508950E94800D332312F48A1BDF
:101F60009B0B0C94B50F0E94800DB7FF0895821B48
:101F7000930B0895EE0FFF1F0590F491E02D099447
:0E1F800081E090E0F8940C94C50FF894FFCF28
:101F8E00FC60DAF266B6BEE4FEF60A000B000C0048
:101F9E000D00020003000400050006000700080003
:101FAE000900000000009300CF004F030000000066
:101FBE004609A5004E0798097F075D0771070000C7
:101FCE0000007A014D01AA012101450131012201D2
:101FDE00000000009300CF00E6020D0A005265617A
:101FEE0064206661696C0054656D7065726174750C
:101FFE0072653A2000202A43006D7300525443202C
:10200E006973204E4F542072756E6E696E67210093
:10201E004A616E20203520323031390032303A326A
:06202E00323A32350000D9
:00000001FF
