:100000000C9468000C9490000C9490000C94900058
:100010000C9490000C9490000C9490000C94900020
:100020000C9490000C9490000C9490000C94900010
:100030000C9490000C9490000C9490000C94900000
:100040000C9407050C9490000C9477050C945105C2
:100050000C9490000C9490000C9490000C949000E0
:100060000C94A9050C9490000000000024002700C7
:100070002A0000000000250028002B0000000000DE
:1000800023002600290004040404040404040202DA
:100090000202020203030303030301020408102007
:1000A0004080010204081020010204081020000012
:1000B0000008000201000003040700000000000027
:1000C00000001F1C1F1E1F1E1F1F1E1F1E1FCA0BEE
:1000D00011241FBECFEFD8E0DEBFCDBF11E0A0E0FE
:1000E000B1E0EAEAFEE102C005900D92AE38B10738
:1000F000D9F723E0AEE8B1E001C01D92A938B207FC
:10010000E1F710E0C8E6D0E004C02197FE010E94AC
:10011000480FC736D107C9F70E94D1090C94530F75
:100120000C9400000895FC0142835383648375831B
:1001300086819781A085B185480F591F6A1F7B1F53
:1001400042875387648775870895CF92DF92EF9235
:10015000FF920F931F93CF93DF936C017A018B0172
:10016000C0E0D0E0CE15DF0581F0D8016D918D01A2
:10017000D601ED91FC910190F081E02DC601099529
:10018000892B11F02196EECF7E01C701DF91CF912F
:100190001F910F91FF90EF90DF90CF9008950F93F4
:1001A0001F93FC010285138524853585401B510B67
:1001B000620B730B77FD02C0808901C080E01F9144
:1001C0000F910895FC01908190539A3008F090E0CF
:1001D000818180532AE0929F800D1124089585ED3E
:1001E0008093BC008091BC0084FDFCCF109228025B
:1001F00008954091AE01262F30E0240F311D2132A9
:100200003105DCF4209128022430C9F4FC0180E09F
:1002100090E0861758F43091AE012191DC01A2578D
:10022000BE4FA30FB11D2C930196F3CF8091AE0169
:10023000680F6093AE0180E0089581E0089582E048
:1002400008950895E091E1018091E001E81730F40C
:10025000F0E0EE51FE4F808190E008958FEF9FEF28
:1002600008959091E1018091E001981750F4E92FF1
:10027000F0E0EE51FE4F208130E09F5F9093E1016E
:1002800002C02FEF3FEFC90108958091E00190E097
:100290002091E101821B91090895CF92DF92EF92A4
:1002A000FF920F931F93CF93DF937C01CB018A01C1
:1002B00020912902222389F0EB016B01C40ED51E87
:1002C000CC15DD0569F06991D701ED91FC910190A4
:1002D000F081E02DC7010995F3CF642F0E94F9004A
:1002E000C801DF91CF911F910F91FF90EF90DF90A8
:1002F000CF900895CF93DF931F92CDB7DEB7698378
:10030000209129022223D1F020914C02203240F08A
:1003100021E030E0FC013383228380E090E015C0CF
:1003200080912A02E82FF0E0E55DFD4F99819083EE
:100330008F5F80932A0280934C0205C061E0CE015A
:1003400001960E94F90081E090E00F90DF91CF913B
:100350000895089580E090E0089582E480937C0001
:1003600080917A00806480937A0080917A0086FD83
:10037000FCCFA091780080917900B0E0B82B24E602
:1003800030E00E942D0F2FEF33E040E050E00E945C
:10039000A50C3093D2012093D10108950E944E0FF5
:1003A0008DE492E00E94040721E0892B09F420E00B
:1003B000822F0895DF92EF92FF920F931F93CF93B6
:1003C000DF9381E08093290288E680934B021092AC
:1003D0002A0210924C0260E08AEE92E00E947A01BA
:1003E00081E00E94BF0787E090E00E941B088AEE30
:1003F00092E00E9431018F77982F92959F70CAEFFB
:10040000E82E9C9FE00C11248AEE92E00E943101BC
:100410009C01332794E0359527959A95E1F7082FAD
:10042000C29F000D11248AEE92E00E9431019C01CE
:10043000332744E0359527954A95E1F7F82EC29F7A
:10044000F00C11248AEE92E00E9431018AEE92E0D3
:100450000E9431019C01332754E0359527955A9528
:10046000E1F7182FC29F100D11248AEE92E00E942E
:1004700031019C01332764E0359527956A95E1F7B2
:10048000D82EC29FD00C11248AEE92E00E94310136
:100490009C01332774E0359527957A95E1F7C29F43
:1004A000800D1124C4E0D3E08883D9821A83FB82B3
:1004B0000C83ED82A3EDB1E02AE08F2D622F0E9424
:1004C000050FE82FF0E0E050FF4F80818C93E92F7B
:1004D000F0E0E050FF4F808111968C931197802FB0
:1004E0000E94050FE82FF0E0E050FF4F8081129648
:1004F0008C931297E92FF0E0E050FF4F8081139624
:100500008C93812F0E94B8078FE20E94180989817D
:100510000E94B8078FE20E941809688170E060535A
:10052000784F072E000C880B990B4AE00E94770742
:1005300080E20E9418098B810E94B8078AE30E941A
:1005400018098C810E94B8078AE30E9418098D81DE
:100550000E94B80782E491E0DF91CF911F910F9143
:10056000FF90EF90DF900C9465073FB7F89480916F
:10057000DC019091DD01A091DE01B091DF0126B593
:10058000A89B05C02F3F19F00196A11DB11D3FBFCB
:10059000BA2FA92F982F8827820F911DA11DB11D59
:1005A000BC01CD0142E0660F771F881F991F4A9555
:1005B000D1F708952FB7F8946091D8017091D901BF
:1005C0008091DA019091DB012FBF08958F929F9265
:1005D000AF92BF92CF92DF92EF92FF920F931F9351
:1005E000CF93DF93EC01EE85FF85309709F00995F5
:1005F0000E94DA024B015C018E016E012EE1C20EF7
:10060000D11CE12CF12C89A99AA9E816F9060CF164
:100610000E94DA026E837F83888799870A811B8113
:100620002C813D81DC01CB01800F911FA21FB31FE4
:100630008A879B87AC87BD87DF91CF911F910F91F0
:10064000FF90EF90DF90CF90BF90AF909F908F90F2
:100650000895D80153968D919C9154970097C1F0BD
:10066000BFEFEB1AFB0ADC01ED91FC910280F381F4
:10067000E02DB501A4010995882351F0F801838983
:100680009489DC01ED91FC910480F581E02D0995C0
:100690000E5F1F4FC016D10609F0B5CFB9CF0F932B
:1006A0001F93CF93DF93EC01EE85FF85309709F020
:1006B00009950E94DA026E837F83888799870A8171
:1006C0001B812C813D81DC01CB01800F911FA21F7A
:1006D000B31F8A879B87AC87BD87DF91CF911F911E
:1006E0000F9108958F929F92AF92BF92CF92DF9217
:1006F000EF92FF921F93CF93DF930E94DA026B0178
:100700007C0161E08091FC020E9468096AEF70E060
:1007100080E090E00E9497090E94DA028090FF0238
:1007200090900003A0900103B09002036815790532
:100730008A059B0540F41092FF021092000310926C
:1007400001031092020320910303211114C0809031
:10075000FF0290900003A0900103B0900203DC011F
:10076000CB0188199909AA09BB09803D9740A105C9
:10077000B10508F409C1109203030E94DA026093E4
:10078000FF02709300038093010390930203109281
:10079000FA021092F9021092F8021092F7021092E7
:1007A000F6028091FC0290E0FC01E656FF4F249196
:1007B000FC01EA57FF4F8491882399F090E0880F5D
:1007C000991FFC01E859FF4FA591B491FC01EE5827
:1007D000FF4F859194918FB7F894EC91E22BEC93B5
:1007E0008FBF60E08091FC020E94680964E170E0C4
:1007F00080E090E00E94970961E08091FC020E94F5
:1008000068098BE990E00197F1F78091FC0290E094
:10081000FC01E656FF4F2491FC01EA57FF4F8491FB
:100820008823C1F090E0880F991FFC01E859FF4F21
:10083000A591B491FC01EE58FF4FC591D4919FB79B
:10084000F8948C91E22FE0958E238C938881E82395
:10085000E8839FBF10E081E0C0E0D0E0A82EB12C7B
:100860008091FC020E943F098A159B0519F4DF5F05
:10087000DF3FB1F78091FC020E943F09DF3FC1F0EA
:10088000C43098F0C0FD11C0E12FE695E695E695DD
:10089000F0E0EA50FD4F9081990F90832091FE0285
:1008A0002D1710F4916090831F5FCF5FC535A9F6B7
:1008B0001832D0F02091FA0230E04091F602809197
:1008C000F70290E0840F911D4091F802840F911D72
:1008D0004091F902840F911D99272817390721F4B7
:1008E00053C08B3008F05DC085E491E00E9465073D
:1008F00060E070E080EC9FE70E94D40D4B015C014A
:10090000EB011C161D060CF076C08FE491E00E94EE
:100910006507B401092C000C880B990B4AE00E9472
:1009200077078DE591E00E946408C4016AE070E0F9
:100930000E94110FFB01E050FF4F20812093D30153
:10094000FC01E050FF4F80818093D40186EC8093BE
:10095000D5018CE98093D6010E94DA026C197D09D9
:100960008E099F094AE00E94770781E691E0DF91B6
:10097000CF911F91FF90EF90DF90CF90BF90AF90FD
:100980009F908F900C9464088091FD028B3009F049
:10099000A8CF6091F80270E080E090E00E940A0E1B
:1009A000ABCF8551823008F09FCFC091F8026C2FF9
:1009B0006F7770E080E090E00E940C0E20E030E065
:1009C00040E853E40E94980E4B015C016091F902EB
:1009D00070E080E090E00E940C0EA50194010E945E
:1009E000F60C20E030E040E251E40E94620DC7FFC7
:1009F00083CF905881CFDF91CF911F91FF90EF90DF
:100A0000DF90CF90BF90AF909F908F9008951F92EE
:100A10000F920FB60F9211242F933F938F939F93B2
:100A2000AF93BF938091D8019091D901A091DA0141
:100A3000B091DB013091D70123E0230F2D3720F453
:100A40000196A11DB11D05C026E8230F0296A11D28
:100A5000B11D2093D7018093D8019093D901A09321
:100A6000DA01B093DB018091DC019091DD01A0916E
:100A7000DE01B091DF010196A11DB11D8093DC0163
:100A80009093DD01A093DE01B093DF01BF91AF91A0
:100A90009F918F913F912F910F900FBE0F901F90BC
:100AA00018951F920F920FB60F9211242F933F9318
:100AB0004F935F936F937F938F939F93AF93BF9366
:100AC000EF93FF938DE492E00E94A908FF91EF91CC
:100AD000BF91AF919F918F917F916F915F914F9156
:100AE0003F912F910F900FBE0F901F9018951F925E
:100AF0000F920FB60F9211242F938F939F93EF9322
:100B0000FF93E0915D02F0915E028081E0916302CB
:100B1000F091640282FD12C09081809166028F5F25
:100B20008F7320916702821751F0E0916602F0E026
:100B3000E35BFD4F958F8093660201C08081FF913A
:100B4000EF919F918F912F910F900FBE0F901F905B
:100B500018951F920F920FB60F9211242F933F9367
:100B60004F935F936F937F938F939F93AF93BF93B5
:100B7000EF93FF938091B900887F803609F49CC081
:100B800068F5883209F45BC090F4803109F454C0F0
:100B900038F4882309F4F2C0883009F44DC0F2C05B
:100BA000883109F44CC0803209F45DC0EBC0803458
:100BB00009F468C048F4803309F455C0883309F05B
:100BC000E1C080932602D4C0803509F44FC0883537
:100BD00009F45DC0883409F0D5C0D2C0883909F461
:100BE000C3C0A8F4883709F467C038F4883609F41C
:100BF00063C0803709F460C0C5C0883809F4B4C048
:100C0000803909F45FC0803809F0BCC05BC0803B0C
:100C100009F484C038F4803A09F466C0883A09F4CB
:100C20007DC0B0C0803C09F4A3C0883C09F4A0C0DA
:100C3000883B09F486C0A6C08091030210C0909141
:100C4000250280912402981770F5E091250281E039
:100C50008E0F80932502F0E0EC5FFD4F8081809342
:100C6000BB0085EC82C0809326028AC0E0912502F9
:100C700081E08E0F809325028091BB00F0E0EC5F55
:100C8000FD4F808390912502809124026AC0E091FB
:100C9000250281E08E0F809325028091BB00F0E059
:100CA000EC5FFD4F808380912702811169C081E054
:100CB0008093020284EA5DC083E080932802109250
:100CC000D001CFCF8091D001803208F04DC0E091AB
:100CD000D00181E08E0F8093D0018091BB00F0E0C5
:100CE000E055FE4F8083BDCF85EC8093BC00109211
:100CF00028028091D001803230F4E091D001F0E000
:100D0000E055FE4F10826091D00170E080EB91E0E1
:100D1000E0E0F0E009951092D00134C084E08093C7
:100D200028021092AF011092AE01E0E0F0E00995C8
:100D30008091AE01811105C081E08093AE011092D7
:100D40008E01E091AF0181E08E0F8093AF01F0E062
:100D5000E257FE4F80818093BB009091AF0180915C
:100D6000AE01981708F47DCF85E88093BC000AC0D7
:100D700085EC8093BC001092280204C010922602D9
:100D80000E94EF00FF91EF91BF91AF919F918F91E2
:100D90007F916F915F914F913F912F910F900FBE77
:100DA0000F901F901895FC01538D448D252F30E036
:100DB000842F90E0821B930B541710F0CF96089568
:100DC00001970895FC01918D828D981761F0828DB5
:100DD000DF01A80FB11D5D968C91928D9F5F9F736F
:100DE000928F90E008958FEF9FEF0895FC01918D11
:100DF000828D981731F0828DE80FF11D858D90E07E
:100E000008958FEF9FEF0895FC01918D228D892F1A
:100E100090E0805C9F4F821B91098F739927089502
:100E200080E090E0892B29F00E94D00181110C9480
:100E300000000895833081F028F4813099F08230E9
:100E4000A1F008958730A9F08830B9F08430D1F44A
:100E5000809180008F7D03C0809180008F77809388
:100E60008000089584B58F7702C084B58F7D84BDDE
:100E700008958091B0008F7703C08091B0008F7D7E
:100E80008093B0000895CF93DF93EC018EE091E062
:100E90009983888381E0888B1F861E861A861B862D
:100EA0001C861D860E94DA026E837F83888799875D
:100EB000DA8BC98B1A821B821C821D826A877B8710
:100EC0008C879D87DF91CF910895009769F0FC0191
:100ED00001900020E9F73197AF01481B590BBC0185
:100EE0008DE492E00C94A50080E090E008958F924C
:100EF0009F92AF92BF920F931F93CF93DF93CDB783
:100F0000DEB7A1970FB6F894DEBF0FBECDBF19A212
:100F1000423008F44AE08E010F5D1F4F842E912C61
:100F2000A12CB12CA50194010E94C40CE62FB9019B
:100F3000CA0101501109EA3014F4E05D01C0E95C16
:100F4000D801EC93232B242B252B61F7C8010E9499
:100F50006507A1960FB6F894DEBF0FBECDBFDF9137
:100F6000CF911F910F91BF90AF909F908F90089558
:100F7000682F70E080E090E04AE00C947707282F1B
:100F800030914C02313208F04AC080912802811120
:100F9000FCCF90914B0242E040932802209327021D
:100FA0002FEF209326021092250230932402EBE2C9
:100FB000F2E0A4E0B2E020E0321721F041914D933D
:100FC0002F5FFACF1092030220910302990F922B08
:100FD0009093030290910202913061F41092020208
:100FE000909103029093BB009091BC0093FDF8CFC9
:100FF00095EC01C095EE9093BC0090912802923040
:10100000E1F3909126029F3F79F080912602803291
:1010100041F080912602803331F084E005C081E008
:1010200003C082E001C083E010922A0210924C02B9
:10103000109229020895909128029111FCCF982FC7
:10104000813208F090E281E08093280280932702A9
:101050002FEF2093260210922502290F20932402BD
:101060008093030280910302806D8093030280913C
:101070000202813061F41092020280910302809397
:10108000BB008091BC0083FDF8CF85EC01C085EEEC
:101090008093BC00809128028130E1F38091250289
:1010A000891710F490912502E4E0F2E0A2EEB1E09D
:1010B00080E0891721F021912D938F5FFACF109254
:1010C000E1018093E0010895CF93DF930E946507CB
:1010D000EC0182E491E00E9465078C0F9D1FDF9177
:1010E000CF910895CF93DF93A9E6B3E0FD01C191BD
:1010F000D191209741F049895A89EC0129893A898F
:101100004217530711F1D3E0E738FD0781F720E0DC
:1011100030E04D915D91452B89F4220F331FF90189
:10112000EA5AFC4F948B838B8091870390918803BC
:101130000196909388038093870307C02F5F3F4FEA
:101140002F30310531F780E001C081E0DF91CF9190
:101150000895FC01848DDF01A80FB11DA35ABF4F74
:101160002C91848D90E001968F739927848FA689A6
:10117000B7892C93A089B1898C91837080648C93FA
:10118000938D848D981306C00288F389E02D8081A9
:101190008F7D80830895EF92FF920F931F93CF93DB
:1011A000DF93EC0181E0888F9B8D8C8D981305C0B7
:1011B000E889F989808185FD26C0F62E0B8D10E027
:1011C0000F5F1F4F0F731127E02E8C8DE8120CC09C
:1011D0000FB607FCFACFE889F989808185FFF5CF42
:1011E000CE010E94A908F1CF8B8DFE01E80FF11D01
:1011F000E35AFF4FF0829FB7F8940B8FEA89FB897F
:10120000808180620AC09FB7F894EE89FF8960836D
:10121000E889F98980818370806480839FBF81E041
:1012200090E0DF91CF911F910F91FF90EF90089583
:10123000682F8DE492E00C94CB08CF93DF93EC0100
:10124000888D8823C9F0EA89FB89808185FD05C0E6
:10125000A889B9898C9186FD0FC00FB607FCF5CF20
:10126000808185FFF2CFA889B9898C9185FFEDCF68
:10127000CE010E94A908E7CFDF91CF910895CF93C7
:10128000DF93282F30E0F901E255FF4F8491F901F7
:10129000E656FF4FD491F901EA57FF4FC491CC2392
:1012A00091F081110E941A07EC2FF0E0EE0FFF1F62
:1012B000E458FF4FA591B491EC91ED2381E090E0CB
:1012C00021F480E002C080E090E0DF91CF910895AA
:1012D0001F93CF93DF93282F30E0F901E255FF4FA2
:1012E0008491F901E656FF4FD491F901EA57FF4F77
:1012F000C491CC23C1F0162F81110E941A07EC2F44
:10130000F0E0EE0FFF1FEE58FF4FA591B4919FB78D
:10131000F894111104C08C91D095D82302C0EC919F
:10132000DE2BDC939FBFDF91CF911F9108958F92A9
:101330009F92AF92BF92CF92DF92EF92FF926B019A
:101340007C010E94B5024B015C01C114D104E1048F
:10135000F104F1F00E94B502DC01CB018819990972
:10136000AA09BB09883E9340A105B10570F321E0AD
:10137000C21AD108E108F10888EE880E83E0981EB1
:10138000A11CB11CC114D104E104F10419F7DDCF93
:10139000FF90EF90DF90CF90BF90AF909F908F9095
:1013A0000895789484B5826084BD84B5816084BDDD
:1013B00085B5826085BD85B5816085BD80916E00F3
:1013C000816080936E001092810080918100826024
:1013D0008093810080918100816080938100809161
:1013E00080008160809380008091B1008460809350
:1013F000B1008091B00081608093B00080917A004C
:10140000846080937A0080917A00826080937A0071
:1014100080917A00816080937A0080917A00806860
:1014200080937A001092C1008FEF8AB98BB98CE358
:1014300084B915B8DD24D394D0922902D8E6D0938C
:101440004B0210922A0210924C0260E08AEE92E067
:101450000E947A0181E00E94BF0781E090E00E9433
:101460001B088AEE92E00E94310187FF7DC084E66E
:1014700091E00E94640881E891E00E94E200C82F98
:101480008CE791E00E94E200182F84E891E00E942E
:10149000E200082F87E891E00E94E200F82E8AE837
:1014A00091E00E94E200E82ED0922902D0934B02F4
:1014B00010922A0210924C0260E08AEE92E00E94A2
:1014C0007A01DAE08E2D6D2F0E94050F682F660FCE
:1014D000860F880F682F6E0D8AEE92E00E947A01C7
:1014E0008F2D6D2F0E94050F682F660F860F880FB6
:1014F000682F6F0D8AEE92E00E947A01802F6D2F87
:101500000E94050F682F660F860F880F682F600FE7
:101510008AEE92E00E947A0160E08AEE92E00E94F8
:101520007A01812F6D2F0E94050F682F660F860F9D
:10153000880F682F610F8AEE92E00E947A0161E0C5
:101540008AEE92E00E947A018C2F6D2F0E94050F87
:10155000682F660F680F660F6C0F8AEE92E00E948C
:101560007A0181E00E94BF078AED91E090935203D7
:101570008093510380EA9FE0A0E0B0E080934503B0
:1015800090934603A0934703B09348038091490387
:1015900090914A03A0914B03B0914C038056904F19
:1015A000AF4FBF4F80934D0390934E03A0934F03D3
:1015B000B09350038DEA91E090933F0380933E03F4
:1015C00084E690E0A0E0B0E0809332039093330390
:1015D000A0933403B0933503809136039091370381
:1015E000A0913803B09139038C599F4FAF4FBF4F33
:1015F00080933A0390933B03A0933C03B0933D0345
:1016000082E990E090932C0380932B038AEF90E083
:10161000A0E0B0E080931F0390932003A0932103E8
:10162000B09322038091230390912403A09125037A
:10163000B091260386509F4FAF4FBF4F8093270333
:1016400090932803A0932903B0932A0382E793E0A1
:10165000909319038093180388E893E1A0E0B0E029
:1016600080930C0390930D03A0930E03B0930F038C
:101670008091100390911103A0911203B091130374
:1016800088579C4EAF4FBF4F809314039093150320
:10169000A0931603B093170383E493E00E947208AB
:1016A00080E393E00E9472088DE193E00E9472084B
:1016B0008AE093E00E9472088AE78093D3018EEE5D
:1016C0008093D4018CE78093D5018CE08093D60180
:1016D000EE24E394F12C34E6832E912CA12CB12C32
:1016E000DD24DA9486E593E00E94E60203ED11E042
:1016F000C2E0D0E085B18C6385B925B1C7010C2E5D
:1017000001C0880F0A94EAF7822785B9F801819110
:101710008F018BB9A091D101B091D20128EE33E0B5
:101720000E942D0FA50194010E94A50C22303105C5
:1017300048F0220F331F220F331F25503109C901F2
:101740000197F1F7DBB82091D1013091D201ACE3E0
:10175000B6EF0E94250FA50194010E94A50CDA01A5
:10176000C9018C53964FAF4FBF4F8230910550F057
:101770009C01220F331F220F331F25503109C9014D
:101780000197F1F72196C630D10509F0B3CF0E9439
:101790001007A8CF1092500210924F0288EE93E0EB
:1017A000A0E0B0E08093510290935202A0935302C4
:1017B000B093540228E131E030934E0220934D0261
:1017C00025EC30E030935A022093590224EC30E0AB
:1017D00030935C0220935B0220EC30E030935E0299
:1017E00020935D0221EC30E03093600220935F0291
:1017F00022EC30E0309362022093610226EC30E06C
:101800003093640220936302109266021092670282
:1018100010926802109269021092ED021092EC028E
:101820008093EE029093EF02A093F002B093F10246
:101830008AE291E09093EB028093EA0286E593E0DE
:101840000E9443078CE391E09093570380935603E3
:101850001092880310928703E9E6F3E01192119247
:1018600083E0E738F807D1F7109258031092590334
:1018700010925A0310925B0380915C0390915D0378
:10188000A0915E03B0915F03809360039093610326
:10189000A0936203B093630383E493E00E94430741
:1018A00080E393E00E9443078DE193E00E944307A9
:1018B0008AE093E00E94430780E1809309038CE172
:1018C0008093080386E08093070340E081E697E970
:1018D000542F537021E009F020E061E0640F30E004
:1018E000F901E359FE4F8E179F0730F0821B930BCF
:1018F0008D569140462FECCF4093040321E0E22F18
:10190000F0E0EF53FF4FE491511103C0223009F48E
:10191000EF5FF0E031E0320F8E179F0720F08E1B53
:101920009F0B232FECCF209305038F5F809306033B
:101930008EE08093FC028BE08093FD0286E0809332
:10194000FE0281E0809303030895052E97FB1EF4A9
:1019500000940E94BC0C57FD07D00E94C40C07FCE9
:1019600003D04EF40C94BC0C5095409530952195C5
:101970003F4F4F4F5F4F08959095809570956195BB
:101980007F4F8F4F9F4F0895A1E21A2EAA1BBB1BBA
:10199000FD010DC0AA1FBB1FEE1FFF1FA217B3073B
:1019A000E407F50720F0A21BB30BE40BF50B661F51
:1019B000771F881F991F1A9469F760957095809515
:1019C00090959B01AC01BD01CF010895A29FB0018C
:1019D000B39FC001A39F700D811D1124911DB29F63
:1019E000700D811D1124911D08955058BB27AA2701
:1019F0000E940D0D0C945E0E0E94500E38F00E9455
:101A0000570E20F039F49F3F19F426F40C944D0E34
:101A10000EF4E095E7FB0C94470EE92F0E946F0E41
:101A200058F3BA17620773078407950720F079F413
:101A3000A6F50C94910E0EF4E0950B2EBA2FA02D66
:101A40000B01B90190010C01CA01A0011124FF276B
:101A5000591B99F0593F50F4503E68F11A16F04066
:101A6000A22F232F342F4427585FF3CF4695379565
:101A70002795A795F0405395C9F77EF41F16BA0B2A
:101A8000620B730B840BBAF09150A1F0FF0FBB1FD8
:101A9000661F771F881FC2F70EC0BA0F621F731F21
:101AA000841F48F4879577956795B795F7959E3F7E
:101AB00008F0B0CF9395880F08F09927EE0F97950F
:101AC000879508950E94760D0C945E0E0E94570E25
:101AD00058F00E94500E40F029F45F3F29F00C941A
:101AE000470E51110C94920E0C944D0E0E946F0EE5
:101AF00068F39923B1F3552391F3951B550BBB273D
:101B0000AA2762177307840738F09F5F5F4F220F81
:101B1000331F441FAA1FA9F335D00E2E3AF0E0E878
:101B200032D091505040E695001CCAF72BD0FE2FC2
:101B300029D0660F771F881FBB1F26173707480756
:101B4000AB07B0E809F0BB0B802DBF01FF2793580E
:101B50005F4F3AF09E3F510578F00C94470E0C947D
:101B6000920E5F3FE4F3983ED4F3869577956795A0
:101B7000B795F7959F5FC9F7880F911D9695879543
:101B800097F90895E1E0660F771F881FBB1F621762
:101B900073078407BA0720F0621B730B840BBA0B20
:101BA000EE1F88F7E09508950E94DB0D6894B1114F
:101BB0000C94920E08950E94770E88F09F5798F02B
:101BC000B92F9927B751B0F0E1F0660F771F881F42
:101BD000991F1AF0BA95C9F714C0B13091F00E945C
:101BE000910EB1E008950C94910E672F782F8827FD
:101BF000B85F39F0B93FCCF3869577956795B39583
:101C0000D9F73EF490958095709561957F4F8F4FF1
:101C10009F4F0895E89409C097FB3EF490958095F6
:101C2000709561957F4F8F4F9F4F9923A9F0F92FA2
:101C300096E9BB279395F695879577956795B79520
:101C4000F111F8CFFAF4BB0F11F460FF1BC06F5F06
:101C50007F4F8F4F9F4F16C0882311F096E911C018
:101C6000772321F09EE8872F762F05C0662371F039
:101C700096E8862F70E060E02AF09A95660F771F4D
:101C8000881FDAF7880F9695879597F9089597F941
:101C90009F6780E870E060E008959FEF80EC089512
:101CA00000240A941616170618060906089500243B
:101CB0000A9412161306140605060895092E0394B5
:101CC000000C11F4882352F0BB0F40F4BF2B11F429
:101CD00060FF04C06F5F7F4F8F4F9F4F089557FD88
:101CE0009058440F551F59F05F3F71F04795880F8A
:101CF00097FB991F61F09F3F79F087950895121621
:101D000013061406551FF2CF4695F1DF08C01616CC
:101D100017061806991FF1CF86957105610508947D
:101D20000895E894BB2766277727CB0197F9089594
:101D30000E94AB0E0C945E0E0E94500E38F00E9472
:101D4000570E20F0952311F00C94470E0C944D0E75
:101D500011240C94920E0E946F0E70F3959FC1F3A4
:101D6000950F50E0551F629FF001729FBB27F00D49
:101D7000B11D639FAA27F00DB11DAA1F649F66279E
:101D8000B00DA11D661F829F2227B00DA11D621FED
:101D9000739FB00DA11D621F839FA00D611D221FA7
:101DA000749F3327A00D611D231F849F600D211D8B
:101DB000822F762F6A2F11249F5750409AF0F1F00E
:101DC00088234AF0EE0FFF1FBB1F661F771F881F77
:101DD00091505040A9F79E3F510580F00C94470E5A
:101DE0000C94920E5F3FE4F3983ED4F3869577957A
:101DF0006795B795F795E7959F5FC1F7FE2B880F1D
:101E0000911D9695879597F90895991B79E004C0DF
:101E1000991F961708F0961B881F7A95C9F7809529
:101E2000089597FB072E16F4009407D077FD09D08C
:101E30000E94340F07FC05D03EF4909581959F4F8A
:101E40000895709561957F4F08950E94E60C3323A5
:101E500012F48A1B9B0B0C942F0F0E94E60CB7FF09
:101E60000895821B930B0895AA1BBB1B51E107C069
:101E7000AA1FBB1FA617B70710F0A61BB70B881F1A
:101E8000991F5A95A9F780959095BC01CD010895A9
:101E9000EE0FFF1F0590F491E02D099481E090E092
:0A1EA000F8940C94530FF894FFCF50
:101EAA00FC60DAF266B6BEE4FEF6000000009300BB
:101EBA00CF004F0300000000CB08A500D3061D0980
:101ECA000407E206F606000000007A014D01AA01A5
:101EDA002101450131012201000000009300CF00D9
:101EEA00E6020D0A0052656164206661696C00545D
:101EFA00656D70657261747572653A2000202A43B7
:101F0A00006D7300525443206973204E4F5420725F
:101F1A00756E6E696E6721004A616E202038203224
:0E1F2A003031390031393A33393A313900005B
:107E0000112484B714BE81FFF0D085E080938100F7
:107E100082E08093C00088E18093C10086E0809377
:107E2000C20080E18093C4008EE0C9D0259A86E02C
:107E300020E33CEF91E0309385002093840096BBD3
:107E4000B09BFECF1D9AA8958150A9F7CC24DD24C4
:107E500088248394B5E0AB2EA1E19A2EF3E0BF2EE7
:107E6000A2D0813461F49FD0082FAFD0023811F036
:107E7000013811F484E001C083E08DD089C08234E0
:107E800011F484E103C0853419F485E0A6D080C0E4
:107E9000853579F488D0E82EFF2485D0082F10E0AE
:107EA000102F00270E291F29000F111F8ED06801E7
:107EB0006FC0863521F484E090D080E0DECF843638
:107EC00009F040C070D06FD0082F6DD080E0C81688
:107ED00080E7D80618F4F601B7BEE895C0E0D1E017
:107EE00062D089930C17E1F7F0E0CF16F0E7DF06D8
:107EF00018F0F601B7BEE89568D007B600FCFDCFD4
:107F0000A601A0E0B1E02C9130E011968C91119780
:107F100090E0982F8827822B932B1296FA010C0160
:107F200087BEE89511244E5F5F4FF1E0A038BF0790
:107F300051F7F601A7BEE89507B600FCFDCF97BE46
:107F4000E89526C08437B1F42ED02DD0F82E2BD052
:107F50003CD0F601EF2C8F010F5F1F4F84911BD097
:107F6000EA94F801C1F70894C11CD11CFA94CF0C13
:107F7000D11C0EC0853739F428D08EE10CD085E9AC
:107F80000AD08FE07ACF813511F488E018D01DD067
:107F900080E101D065CF982F8091C00085FFFCCF94
:107FA0009093C60008958091C00087FFFCCF809118
:107FB000C00084FD01C0A8958091C6000895E0E648
:107FC000F0E098E1908380830895EDDF803219F02E
:107FD00088E0F5DFFFCF84E1DECF1F93182FE3DFCA
:107FE0001150E9F7F2DF1F91089580E0E8DFEE27F6
:047FF000FF270994CA
:027FFE00040479
:0400000300007E007B
:00000001FF
