:100000000C94A9000C94D1000C94D1000C94D10054
:100010000C94D1000C94D1000C94D1000C94651177
:100020000C94D1000C94D1000C94D1000C94F00DE0
:100030000C94D1000C94D1000C94D1000C94D100FC
:100040000C94A60D0C94D1000C94D1000C94D1000A
:100050000C94D1000C94D1000C94D1000C94D100DC
:100060000C94D30E0C94D10007634236B79BD8A7EB
:100070001A39685618AEBAAB558C1D3CB7CC5763CD
:10008000BD6DEDFD753EF6177231BF000000803F7B
:1000900008000000BE922449123EABAAAA2ABECD97
:1000A000CCCC4C3E00000080BEABAAAAAA3E000009
:1000B0000000BF000000803F000000000008417801
:1000C000D3BB4387D1133D190E3CC3BD4282AD2B38
:1000D0003E68EC8276BED98FE1A93E4C80EFFFBE30
:1000E00001C4FF7F3F00000000000000000024006A
:1000F00027002A0000000000250028002B00000037
:10010000000023002600290004040404040404045D
:1001100002020202020203030303030301020408B2
:100120001020408001020408102001020408102061
:1001300000000008000201000003040700000000A6
:10014000000000001F1C1F1E1F1E1F1F1E1F1E1F42
:10015000D31111241FBECFEFD8E0DEBFCDBF11E019
:10016000A0E0B1E0E6E9F2E302C005900D92AE3303
:10017000B107D9F723E0AEE3B1E001C01D92AD3E77
:10018000B207E1F710E0C9EAD0E004C02197FE0110
:100190000E943E19C83AD107C9F70E9476120C9402
:1001A00049190C94000080916E0190916F010196A5
:1001B00060E177E20E94D81890936F0180936E01FE
:1001C00008952F923F924F925F926F927F928F92FB
:1001D0009F92AF92BF92CF92DF92EF92FF920F93D6
:1001E0001F93CF93DF9300D000D000D0CDB7DEB700
:1001F00089E192E090939801809397018091E102C8
:1002000090E090939A018093990180911502853036
:1002100009F027C580911B0290911C028858910912
:100220008D35910588F48091E102843041F480910C
:100230001D0290911E028097479708F447C1809154
:10024000E102843408F058C08091E1028A3108F458
:100250007FC18091190290911A02843F914090F4DD
:1002600010929601109295018FEF9FEFDC01809321
:10027000910190939201A0939301B093940189E02E
:1002800090E0E5C480911B0290911C0285974B97EA
:1002900008F05EC1EFE1F2E082E090E040E050E083
:1002A000BA012091E10230E0DC011196A217B307F8
:1002B00054F4DF0112972D913C91275031092730DA
:1002C000310508F42AC10197959587959093960179
:1002D000809395010C972CF4109296011092950141
:1002E00037C14093910150939201609393017093B1
:1002F000940182E090E03EC080911D0290911E0228
:10030000825491098E9708F09FCF20E030E080E082
:1003100090E0DC01F901E15EFD4F408151814950DF
:1003200051094930510508F08FCFF901EF5DFD4FBC
:1003300040815181465151094131510508F0E0C0D9
:10034000880F991FAA1FBB1F81602C5F3F4F203869
:10035000310501F720E230E03093960120939501BA
:100360008093910190939201A0939301B093940193
:1003700081E090E090938E0180938D0180919101B6
:100380009091920122E0209315021092E102883CA4
:10039000F6ED9F0709F475C0E4F48636A3E99A07E1
:1003A00009F443C054F48C3EE3E89E0709F44DC0C1
:1003B00082309E4809F450C071C0823229EB920706
:1003C00009F43FC08C3E9E4C09F068C08AEE93E071
:1003D0003EC08832B5E39B07F1F044F48434F0EF7B
:1003E0009F07B1F08236934FE9F058C08832A5E4F8
:1003F0009A07E9F1883CB8E59B07A1F086349A4357
:1004000009F04CC080910A0190910B01089612C02E
:100410008DE494E002C08CE494E090930D0180930D
:100420000C013CC088EE93E012C080910A019091CB
:100430000B01089790930B0180930A0110924503DA
:100440002DC081E08093450329C089EE93E090930D
:1004500009018093080122C080910801909109014F
:100460008A3E9340D9F481E08093580317C080916D
:100470000801909109018A3E934081F4109258033B
:100480000DC080910801909109018A3E934031F49A
:100490001092580310926F0110926E0180914503E3
:1004A0008111DFC380910A0190910B018134910584
:1004B0001CF080E490E005C009970CF0D2C388E0FE
:1004C00090E090930B0180930A01CBC380911F02AF
:1004D000909120020997099708F0B1CE10929601E9
:1004E000109295018FEF9FEFDC0180939101909323
:1004F0009201A0939301B093940181E090E0A7C38F
:1005000040815181465051094730510508F09CCE39
:10051000880F991FAA1FBB1F18CF2081318123513B
:1005200031092F30310540F4440F551F661F771FE6
:10053000416002963496B5CE208131812A5031092E
:100540002930310528F4440F551F661F771FF1CF5E
:100550008091E1028A3108F464C08091190290917F
:100560001A028032934008F47BCE80911B02909156
:100570001C02C697869708F054C080911D02909186
:100580001E02C697869708F04CC0E1E2F2E083E0D5
:1005900090E040E050E0BA012091E10230E0DC015F
:1005A0001196A217B3074CF4DF0112972D913C91DD
:1005B0002C5031092B303105C8F00197959587955E
:1005C00090939601809395010C972CF410929601CC
:1005D0001092950126C0409391015093920160932F
:1005E00093017093940189E090E0C4CE2081318121
:1005F000255231092B31310570F0208131812C5089
:1006000031092A30310568F4440F551F661F771FE2
:1006100002963496C1CF440F551F661F771F416065
:10062000F7CF8091E102823208F457C080911B021B
:1006300090911C020697079708F04FC0EFE1F2E097
:1006400082E090E040E050E0BA018C010F5F1F4F64
:100650002091E10230E002171307C4F4DF01129782
:100660002D913C9111972E5131092731310538F5E3
:10067000440F551F661F771F4160208131813496DA
:10068000235031092530310530F1C8010197959586
:100690008795909396018093950140972CF4109242
:1006A00096011092950119C04093910150939201C7
:1006B00060939301709394018AE090E05BCE2D915A
:1006C0003C912C5031092B30310538F4440F551F23
:1006D000661F771FD2CF0296B8CF8091E1028D308E
:1006E00048F48091990190919A01181619060CF41A
:1006F00083C08FC081E090E09C838B831A82198233
:1007000049E753E0BE016F5F7F4FCE0103960E9421
:10071000950A892B21F080E090E0DC0167C049E771
:1007200053E0BE016F5F7F4FCE0103960E94950A92
:10073000019789F749E753E0BE016F5F7F4FCE0114
:1007400003960E94950A892B31F700E010E0C12C36
:10075000D12C76018091E10290E02B813C81281719
:10076000390774F549E753E0BE016F5F7F4FCE0153
:1007700003960E94950A5C0149E753E0BE016F5F52
:100780007F4FCE0103960E94950AB1E0AB16B104EB
:1007900051F4892B09F0BFCFCC0CDD1CEE1CFF1CE3
:1007A0006894C0F80AC0AB2809F0B5CF019709F0EA
:1007B000B2CFCC0CDD1CEE1CFF1C0F5F1F4FCACF4D
:1007C0001093960100939501C0929101D0929201ED
:1007D000E0929301F092940183E090E090938E0177
:1007E00080938D0181E090E0A0E0B0E0892B8A2B1E
:1007F0008B2B09F0C3CD75CF81E090E09C838B8378
:10080000E0919701F09198018281938189974E97A9
:1008100020F080E090E0DC014AC082E090E09C8320
:100820008B83848195810B970A9798F783E090E0FA
:100830009C838B831A8219824CEB51E0BE016F5F5F
:100840007F4FCE0103960E94950A892B11F74CEB3E
:1008500051E0BE016F5F7F4FCE0103960E94950A63
:100860000197B9F600E010E0C12CD12C760120915F
:10087000990130919A018B819C81821793070CF426
:10088000E9C01093960100939501C0929101D09216
:100890009201E0929301F092940184E090E09093B1
:1008A0008E0180938D0181E090E0A0E0B0E0892B83
:1008B0008A2B8B2B09F062CDE0919701F091980182
:1008C00082819381C6978697E0F4848195814B97C6
:1008D0004597B8F4DF0116967F0126ECE20EF11C75
:1008E00020E030E040E050E060E070E080E090E048
:1008F0000D911C911197095011090830110508F448
:10090000FAC08091E102823231F4828193810A97A8
:10091000099708F42CC18281938189579109833505
:100920009105D0F48091E1028132B0F0848195810B
:10093000CA97899788F49F012A5F3F4FC12CD12C19
:10094000760143E050E0D9016D917C916A507109C4
:100950006930710508F42CC18091990190919A0138
:100960009E838D8306970CF46CC18F010E5F1F4F21
:1009700075ECC72E7DE9D72E7CE1E72E71E8F72EC6
:10098000E3E02E2E312CD80114966D917C911597B1
:10099000AD90BC9080E090E00E9418162B013C01C5
:1009A000B50180E090E00E9418164B015C012DEC2F
:1009B0003CEC4CE45FE30E94CA169B01AC01C3010E
:1009C000B2010E946B1587FD17C02DEC3CEC4CE486
:1009D0005FE3C301B2010E94CA169B01AC01C501CD
:1009E000B4010E946B15E82F880FFF0BEE27FF0F55
:1009F000EE1FFF27319602C0E0E0F0E0A70196016C
:100A000063E971E080E091E00E94BC186F01FF0F84
:100A1000EE08FF08C626D726E826F926BFEF2B1AD0
:100A20003B0A0E5F1F4FED81FE81E215F30509F0D1
:100A3000AACFC0929101D0929201E0929301F092DC
:100A4000940180E290E090939601809395018FEF5E
:100A50009FEF90CC4CEB51E0BE016F5F7F4FCE011A
:100A600003960E94950A5C010330110571F04CEB6E
:100A700051E0BE016F5F7F4FCE0103960E94950A41
:100A80004C0103301105D9F40DC04CEB51E0BE010F
:100A90006F5F7F4FCE0103960E94950AA816B90694
:100AA00031F3B7CE4CEB51E0BE016F5F7F4FCE010B
:100AB00003960E94950A8816990609F0AACEA114F9
:100AC000B10459F48A94892809F0A3CECC0CDD1C1A
:100AD000EE1CFF1C6894C0F80BC0AA94AB2809F068
:100AE00098CE892809F095CECC0CDD1CEE1CFF1C9D
:100AF0000F5F1F4FBCCE12960D911C9113970151A1
:100B000011090D30110528F501E00E94F31821604C
:100B10001496EA16FB0609F0EBCE20939101309370
:100B20009201409393015093940100E20E940E19A8
:100B300020938F013093900187E090E090938E0195
:100B400080938D0180E390E09093960180939501CE
:100B500015CC12960D911C91139704501109053074
:100B6000110508F0CECE01E00E94F318D1CF2091FC
:100B7000E102CF01820F911D820F911DDC011297BE
:100B80008D919C910A97099708F0C5CE1092960115
:100B9000109295018FEF9FEFDC018093910190936C
:100BA0009201A0939301B093940188E090E04FC02C
:100BB000D90112966D917C9113976651710961313B
:100BC000710578F5D701C601880F991FAA1FBB1FB1
:100BD0006C017D016894C0F84E5F5F4F2C5F3F4F02
:100BE0004332510509F0AFCE9F012A5B3F4FD90137
:100BF0002D913C912A5031092930310508F0ACCEB5
:100C000020E130E03093960120939501C09291014C
:100C1000D0929201E0929301F092940188E090E0EA
:100C2000A9CBD90112966D917C91139766507109E9
:100C30006730710508F090CECC0CDD1CEE1CFF1C5B
:100C4000CBCF82E0809315021092E1020AC090930C
:100C50008E0180938D0182E0809315021092E10253
:100C60001DCC26960FB6F894DEBF0FBECDBFDF9128
:100C7000CF911F910F91FF90EF90DF90CF90BF9099
:100C8000AF909F908F907F906F905F904F903F902C
:100C90002F900895CF93DF9382E480937C0080911E
:100CA0007A00806480937A0080917A0086FDFCCF80
:100CB000A091780080917900B0E0B82B2FE330E06C
:100CC0000E94EC182AE832E040E050E00E94A314B1
:100CD000DA01C9010196A11DB11DEC018134910514
:100CE00034F4181619062CF0C1E0D0E002C0C0E4BC
:100CF000D0E060E170E08EE391E00E945211892B18
:100D000019F0ECE5F1E00AC0EEE3F1E08EE591E0E8
:100D1000C193D1938E179F07D9F7F3CF9291829108
:100D20009383828381E0EE33F807C1F7D0933F01CC
:100D3000C0933E0160E170E08EE391E00E945211A9
:100D400090930B0180930A01DF91CF9108958F92C8
:100D50009F92AF92BF92CF92DF92EF92FF928091DB
:100D600070008D7F809370008FEF8BB90E94090C0B
:100D700080907C0190907D01A0907E01B0907F01D9
:100D80000E94090CC0908001D0908101E090820106
:100D9000F090830180917000826080937000809158
:100DA000870190918801892B09F0AAC020E030E0EA
:100DB0004FE753EC609104017091050180910601A9
:100DC000909107010E946B15882389F020E030E0A4
:100DD0004FE753EC60910001709101018091020195
:100DE000909103010E946B15882391F021C0C501E9
:100DF000B4010E94E21570936701609366017093DD
:100E000069016093680170936B0160936A01DECFA2
:100E1000C701B6010E94E21570935F0160935E0105
:100E2000709361016093600170936301609362014C
:100E300080916A0190916B0190936D0180936C0198
:100E4000809168019091690190936B0180936A0190
:100E50008091660190916701909369018093680188
:100E60008091620190916301909365018093640188
:100E70008091600190916101909363018093620180
:100E800080915E0190915F01909361018093600178
:100E9000C501B4010E94E215709367016093660179
:100EA000C701B6010E94E21570935F0160935E0175
:100EB00064E070E086E691E00E945211BC01990F57
:100EC000880B990B0E941A16609304017093050118
:100ED000809306019093070164E070E08EE591E055
:100EE0000E945211BC01990F880B990B0E941A168F
:100EF00060930001709301018093020190930301BC
:100F0000FF90EF90DF90CF90BF90AF909F908F9029
:100F10000895EF92FF920F931F93CF93DF9381E099
:100F20008093E40188E6809306021092E501109216
:100F3000070260E088E092E00E947F1081E00E945A
:100F4000F00987E090E00E944C0A88E092E00E945D
:100F5000880D8F77982F92959F70CAEFD82F9C9FFE
:100F6000D00D112488E092E00E94880D9C01332767
:100F700094E0359527959A95E1F7182FC29F100DAB
:100F8000112488E092E00E94880D9C01332744E000
:100F9000359527954A95E1F7082FC29F000D11243A
:100FA00088E092E00E94880D88E092E00E94880D1F
:100FB0009C01332754E0359527955A95E1F7F82E93
:100FC000C29FF00C112488E092E00E94880D9C01E1
:100FD000332764E0359527956A95E1F7E82EC29F9F
:100FE000E00C112488E092E00E94880D9C013327D8
:100FF00074E0359527957A95E1F7C29F800D11240D
:10100000E3EEF2E08083E182F28203831483D583EE
:10101000DF91CF911F910F91FF90EF9008956F9204
:101020007F928F929F92AF92BF92CF92DF92EF9278
:10103000FF920F931F93CF93DF930E94DB0B2091BE
:10104000080130910901293E43E0340709F49EC0AC
:101050002A3EE3E03E0709F4CDC0283E334009F0C4
:1010600028C1613D27E07207810591050CF42CC170
:1010700020ED37E040E050E00E94A314CA01B9011E
:101080002AE030E040E050E00E94A314683071058F
:101090008105910569F5C0900401D0900501E090AB
:1010A0000601F090070120E030E04FE753ECC70164
:1010B000B6010E946B15882309F446C0C701B6012A
:1010C0000E94E215CB016AE070E00E94D818FB0193
:1010D000E25FFE4F20812093A103FC01E25FFE4FFF
:1010E00080818093A20386EC8093A3038CE9EAC0FD
:1010F000693071058105910539F5C0900001D090E6
:101100000101E0900201F090030120E030E04FE7A0
:1011100053ECC701B6010E946B158823A9F08EE637
:101120008093A1031092A203C701B6010E94E215A9
:10113000CB016AE070E00E94D818FB01E25FFE4F2D
:1011400020812093A3034FC08091E6022AE0622F02
:101150000E94CC18E82FF0E0E25FFE4F8081809380
:10116000A103E92FF0E0E25FFE4F80818093A203AC
:101170008091E7020E94CC18E82FF0E0E25FFE4F7A
:1011800080818093A303E92FF0E02EC08EE380934B
:10119000A1038AE08093A20320910A0130910B0100
:1011A000EAE0F0E0C901BF010E94D818CB01BF01FD
:1011B0000E94D818181619061CF0243631052CF098
:1011C000FC01E25FFE4F808101C080E08093A303B9
:1011D000C9016AE070E00E94D818181619061CF0C0
:1011E0002A3031052CF0FC01E25FFE4F80816AC09D
:1011F00080E068C0E0906E01F0906F0181EAC82E37
:1012000083E0D82EC0E0D0E093E0692E712C2AE074
:10121000A22EB12C34E0832E912CB3016C1B7D0BDC
:10122000072E000C880B990B0E941A169B01AC012B
:1012300060E070E080E291E40E9437170E94E215BE
:10124000AB01BC01C701BA010E94D818CB01B5019E
:101250000E94D8188C0118161906E4F0B4016C1B12
:101260007D0B072E000C880B990B0E941A169B0110
:10127000AC0160E070E080E291E40E9437170E94C8
:10128000E215E616F70634F4E114F10441F4C33034
:10129000D10529F4F801E25FFE4F808101C080E0B2
:1012A000F60181936F012196C430D10509F0B5CFC5
:1012B0000BC08CEE8093A1038EE98093A2038AE099
:1012C0008093A3038093A403DF91CF911F910F918B
:1012D000FF90EF90DF90CF90BF90AF909F908F9056
:1012E0007F906F900895833081F028F4813099F0D9
:1012F0008230A1F008958730A9F08830B9F08430A9
:10130000D1F4809180008F7D03C0809180008F7721
:1013100080938000089584B58F7702C084B58F7D57
:1013200084BD08958091B0008F7703C08091B00094
:101330008F7D8093B00008951F93CF93DF93282F64
:1013400030E0F901E05DFE4F8491F901E45EFE4F6B
:10135000D491F901E85FFE4FC491CC23C1F0162F60
:1013600081110E947309EC2FF0E0EE0FFF1FEC508B
:10137000FF4FA591B4919FB7F894111104C08C91BF
:10138000D095D82302C0EC91DE2BDC939FBFDF9178
:10139000CF911F9108953FB7F89480917401909177
:1013A0007501A0917601B091770126B5A89B05C083
:1013B0002F3F19F00196A11DB11D3FBFBA2FA92FD4
:1013C000982F8827820F911DA11DB11DBC01CD0151
:1013D00042E0660F771F881F991F4A95D1F708953D
:1013E000282F30910702313208F04AC08091E30182
:1013F0008111FCCF9091060242E04093E3012093DB
:10140000E2012FEF2093E1011092E0013093DF0120
:10141000E6EEF1E0AFEBB1E020E0321721F04191D0
:101420004D932F5FFACF1092BE012091BE01990F0C
:10143000922B9093BE019091BD01913061F4109276
:10144000BD019091BE019093BB009091BC0093FDB3
:10145000F8CF95EC01C095EE9093BC009091E3011C
:101460009230E1F39091E1019F3F79F08091E101A9
:10147000803241F08091E101803331F084E005C099
:1014800081E003C082E001C083E01092E501109288
:1014900007021092E40108959091E3019111FCCFAD
:1014A000982F813208F090E281E08093E3018093ED
:1014B000E2012FEF2093E1011092E001290F209328
:1014C000DF018093BE018091BE01806D8093BE01DB
:1014D0008091BD01813061F41092BD018091BE0107
:1014E0008093BB008091BC0083FDF8CF85EC01C0E8
:1014F00085EE8093BC008091E3018130E1F380911F
:10150000E001891710F49091E001EFEBF1E0ADE913
:10151000B1E080E0891721F021912D938F5FFACF00
:1015200010929C0180939B0108958F929F92AF929D
:10153000BF92CF92DF92EF92FF920F931F93CF93C0
:10154000DF93FC0120813181E0919901F0919A01B2
:101550002E173F070CF04FC0F901EE0FFF1FA091AF
:101560009701B0919801EA0FFB1FA080B180217014
:1015700033276901F1E0CF26232B19F42CE93FEF43
:1015800002C024E630E07A018B01EC014901840EAF
:10159000951EB401C5010E948F0E892B99F48E0C03
:1015A0009F1CB401C5010E948F0E892B71F4B701F5
:1015B000680D791DC5010E948F0E892BF9F023E07B
:1015C00030E005C021E030E002C022E030E0F80168
:1015D000808191810196821793071CF49183808307
:1015E00008C0F8011182108288819981019699833F
:1015F0008883C60105C081E090E002C08FEF9FEFB5
:10160000DF91CF911F910F91FF90EF90DF90CF90DE
:10161000BF90AF909F908F90089510929C01109270
:101620009B011092E501109207021092E30181E004
:101630008093E2011092BD0161E082E10E949C0969
:1016400061E083E10E949C09E9EBF0E080818E7FFC
:10165000808380818D7F808388E48093B80085E4D7
:101660008093BC0086E79DE090937B0180937A0194
:1016700087E79DE090937901809378010895CF9357
:10168000DF93A1E8B3E0FD01C191D191209741F032
:1016900049895A89EC0129893A894217530711F17E
:1016A000D3E0EF39FD0781F720E030E04D915D9107
:1016B000452B89F4220F331FF901E259FC4F948B1B
:1016C000838B80919F039091A00301969093A00338
:1016D00080939F0307C02F5F3F4F2F30310531F7B5
:1016E00080E001C081E0DF91CF910895CF93DF9337
:1016F000282F30E0F901E05DFE4F8491F901E45EAE
:10170000FE4FD491F901E85FFE4FC491CC2391F0D4
:1017100081110E947309EC2FF0E0EE0FFF1FE250E1
:10172000FF4FA591B491EC91ED2381E090E021F47D
:1017300080E002C080E090E0DF91CF910895CF93E8
:10174000DF9390E0FC01E45EFE4F2491FC01E85F32
:10175000FE4F8491882361F190E0880F991FFC016E
:10176000E651FF4FC591D491FC01EC50FF4FA5917C
:10177000B491611109C09FB7F894888120958223A4
:101780008883EC912E230BC0623061F49FB7F894EC
:101790008881322F309583238883EC912E2B2C93D4
:1017A0009FBF06C08FB7F894E8812E2B28838FBF88
:1017B000DF91CF9108952FB7F894609170017091E7
:1017C000710180917201909173012FBF0895CF93A1
:1017D000DF93EC018CE191E09983888381E0888B31
:1017E0001F861E861A861B861C861D860E94DB0BA2
:1017F0006E837F8388879987DA8BC98B1A821B82D5
:101800001C821D826A877B878C879D87DF91CF91A1
:1018100008958F929F92AF92BF92CF92DF92EF92F4
:10182000FF920F931F93CF93DF930E94DB0B0091E6
:10183000890110918A0120918B0130918C016B01FB
:101840007C01C01AD10AE20AF30A20918501309185
:1018500086012130310529F00FEC17E020E030E05F
:1018600004C007EE13E020E030E0C016D106E20627
:10187000F30608F4FAC06093890170938A0180939B
:101880008B0190938C0180E090E0A0ECBFE7809307
:101890007C0190937D01A0937E01B0937F018093A2
:1018A000800190938101A0938201B093830160E055
:1018B000809184010E949C0961E0809184010E94D2
:1018C0009F0B8091850190918601019739F50E94C7
:1018D000CB094B015C0142E1C42ED12CE12CF12C4F
:1018E0000E94CB09DC01CB0188199909AA09BB091F
:1018F000883E9340A105B10598F321E0C21AD108B2
:10190000E108F10888EE880E83E0981EA11CB11C46
:10191000C114D104E104F10419F704C08BE79CE081
:101920000197F1F760E0809184010E949F0B61E0D4
:10193000809184010E949C09C0E0D0E0E12CF12C50
:1019400000E010E03DEFD32E0E94CB09862E8D2DB6
:101950008170982EA82E880FBB080E94CB09C62E36
:10196000C8182AE52C1518F481E090E02EC080916B
:1019700084010E94760B8A159B0579F3D7FC08C079
:10198000992031F0000F111F8EE18C1508F40160D1
:101990002FE1D21639F08FE3D81205C0E80100E03C
:1019A00010E001C07801D39420E5D212CDCF6F2D85
:1019B0007727CD2EDD248C2F8E0D860F8C0D90E099
:1019C0008017910739F082E090E09093880180932E
:1019D00087014BC08091850190918601019791F418
:1019E00080E090E00E94181660938001709381015E
:1019F0008093820190938301B60180E090E00E9481
:101A0000181627C0B70180E090E00E9418162DEC50
:101A10003CEC4CEC5DE30E94CA166093800170932D
:101A200081018093820190938301D7FF06C0BE019C
:101A30007F77CC27DD27C61BD70BBE01DD0F880BB8
:101A4000990B0E941A162DEC3CEC4CEC5DE30E94C5
:101A5000CA1660937C0170937D0180937E01909300
:101A60007F011092880110928701DF91CF911F9121
:101A70000F91FF90EF90DF90CF90BF90AF909F902D
:101A80008F900895CF92DF92EF92FF920F931F9362
:101A9000CF93DF936C017A018B01C0E0D0E0CE15CB
:101AA000DF0581F0D8016D918D01D601ED91FC919A
:101AB0000190F081E02DC6010995892B11F0219646
:101AC000EECF7E01C701DF91CF911F910F91FF9063
:101AD000EF90DF90CF90089585ED8093BC008091CA
:101AE000BC0084FDFCCF1092E30108950895089591
:101AF0000895E0919C0180919B01E81730F4F0E09B
:101B0000E356FE4F808190E008958FEF9FEF089598
:101B100090919C0180919B01981750F4E92FF0E07F
:101B2000E356FE4F208130E09F5F90939C0102C0FE
:101B30002FEF3FEFC901089580919B0190E0209124
:101B40009C01821B910908950E9444191F920F92D3
:101B50000FB60F9211242F933F938F939F93AF93C0
:101B6000BF938091700190917101A0917201B09129
:101B700073013091E80323E0230F2D3720F4019601
:101B8000A11DB11D05C026E8230F0296A11DB11DA0
:101B90002093E8038093700190937101A0937201E8
:101BA000B09373018091740190917501A0917601B9
:101BB000B09177010196A11DB11D8093740190939E
:101BC0007501A0937601B0937701BF91AF919F917A
:101BD0008F913F912F910F900FBE0F901F901895EE
:101BE0001F920F920FB60F9211242F933F934F9392
:101BF0005F936F937F938F939F93AF93BF93EF9375
:101C0000FF93809114020E94760B2091170230916D
:101C100018022F5F3F4F30931802209317029091C4
:101C2000E102943618F095E0909315029091150218
:101C30009330B9F018F4923039F057C0943059F11C
:101C4000953009F44CC051C081114FC0209117024A
:101C5000309118022436310508F443C01092E10295
:101C60001CC0813009F041C0E091E10291E09E0F7B
:101C70009093E102F0E02091170230911802EE0FEC
:101C8000FF1FEC5EFD4F36832583109218021092E1
:101C9000170294E021C0811117C0E091E10291E0A8
:101CA0009E0F9093E102F0E020911702309118020C
:101CB000EE0FFF1FEC5EFD4F368325831092180256
:101CC0001092170293E008C0209117023091180279
:101CD0002536310550F095E09093150206C081112C
:101CE00004C01092180210921702909116029923C4
:101CF00029F0811102C02D9A01C02D98FF91EF911A
:101D0000BF91AF919F918F917F916F915F914F9113
:101D10003F912F910F900FBE0F901F901895CF926B
:101D2000DF92EF92FF92CF93DF93EC01072E000C2E
:101D3000880B990B0E941A166B017C0120E030E0A1
:101D400040E45FE30E94CA1620E030E048E452E439
:101D50000E9470150E94E215C617D707D4F020E044
:101D600030E040EA5FE3C701B6010E94CA1620E0F6
:101D700030E048E452E40E94701520E030E040E892
:101D80005FE30E94FF140E94E21521E06C177D07BB
:101D90000CF420E0822F90E0DF91CF91FF90EF9044
:101DA000DF90CF9008951F920F920FB60F921124DB
:101DB0002F933F934F935F936F937F938F939F9353
:101DC000AF93BF93EF93FF938091B900887F8036E4
:101DD00009F49CC068F5883209F45BC090F4803146
:101DE00009F454C038F4882309F4F6C0883009F4A3
:101DF0004DC0F6C0883109F44CC0803209F45DC092
:101E0000EFC0803409F468C048F4803309F455C049
:101E1000883309F0E5C08093E101D8C0803509F42A
:101E20004FC0883509F45DC0883409F0D9C0D6C0E8
:101E3000883909F4C7C0A8F4883709F467C038F4B2
:101E4000883609F463C0803709F460C0C9C0883897
:101E500009F4B8C0803909F45FC0803809F0C0C007
:101E60005BC0803B09F486C038F4803A09F466C050
:101E7000883A09F47FC0B4C0803C09F4A7C0883C0C
:101E800009F4A4C0883B09F48AC0AAC08091BE01AD
:101E900010C09091E0018091DF01981770F5E091FA
:101EA000E00181E08E0F8093E001F0E0E154FE4F0D
:101EB00080818093BB0085EC86C08093E1018EC059
:101EC000E091E00181E08E0F8093E0018091BB0002
:101ED000F0E0E154FE4F80839091E0018091DF01BA
:101EE0006EC0E091E00181E08E0F8093E00180916F
:101EF000BB00F0E0E154FE4F80838091E20181114C
:101F00006DC081E08093BD0184EA61C083E080936D
:101F1000E3011092E703CFCF8091E703803208F00E
:101F200051C0E091E70381E08E0F8093E703809139
:101F3000BB00F0E0E953FC4F8083BDCF85EC80937C
:101F4000BC001092E3018091E703803230F4E0910D
:101F5000E703F0E0E953FC4F10826091E70370E083
:101F6000E0917801F091790187EC93E00995109266
:101F7000E70336C084E08093E3011092C603109219
:101F8000C503E0917A01F0917B0109958091C50329
:101F9000811105C081E08093C5031092A503E091F3
:101FA000C60381E08E0F8093C603F0E0EB55FC4F33
:101FB00080818093BB009091C6038091C5039817E0
:101FC00008F479CF85E88093BC000AC085EC809343
:101FD000BC001092E30104C01092E1010E946C0D5C
:101FE000FF91EF91BF91AF919F918F917F916F91F1
:101FF0005F914F913F912F910F900FBE0F901F90C7
:1020000018954091C503262F30E0240F311D213251
:102010003105DCF42091E3012430C9F4FC0180E0B7
:1020200090E0861758F43091C5032191DC01AB553F
:10203000BC4FA30FB11D2C930196F3CF8091C50324
:10204000680F6093C50380E0089581E0089582E001
:102050000895089580E090E008950F931F93FC0188
:102060000285138524853585401B510B620B730B4C
:1020700077FD02C0808901C080E01F910F91089513
:10208000FC01428353836483758386819781A08595
:10209000B185480F591F6A1F7B1F4287538764878A
:1020A00075870895CF92DF92EF92FF920F931F935F
:1020B000CF93DF937C01CB018A012091E40122239D
:1020C00089F0EB016B01C40ED51ECC15DD0569F05E
:1020D0006991D701ED91FC910190F081E02DC7014C
:1020E0000995F3CF642F0E940110C801DF91CF91B1
:1020F0001F910F91FF90EF90DF90CF900895CF93B5
:10210000DF931F92CDB7DEB769832091E4012223CC
:10211000D1F020910702203240F021E030E0FC01B4
:102120003383228380E090E015C08091E501E82FA1
:10213000F0E0EA51FE4F998190838F5F8093E50133
:102140008093070205C061E0CE0101960E94011054
:1021500081E090E00F90DF91CF9108958F929F9250
:10216000AF92BF92CF92DF92EF92FF920F931F93A5
:10217000CF93DF93EC01EE85FF85309709F0099549
:102180000E94DB0B4B015C018E016E012EE1C20E41
:10219000D11CE12CF12C89A99AA9E816F9060CF1B9
:1021A0000E94DB0B6E837F83888799870A811B815E
:1021B0002C813D81DC01CB01800F911FA21FB31F39
:1021C0008A879B87AC87BD87DF91CF911F910F9145
:1021D000FF90EF90DF90CF90BF90AF909F908F9047
:1021E0000895D80153968D919C9154970097C1F012
:1021F000BFEFEB1AFB0ADC01ED91FC910280F38149
:10220000E02DB501A4010995882351F0F8018389D7
:102210009489DC01ED91FC910480F581E02D099514
:102220000E5F1F4FC016D10609F0B5CFB9CF0F937F
:102230001F93CF93DF93EC01EE85FF85309709F074
:1022400009950E94DB0B6E837F83888799870A81BB
:102250001B812C813D81DC01CB01800F911FA21FCE
:10226000B31F8A879B87AC87BD87DF91CF911F9172
:102270000F91089580910C0190910D018D3494403F
:1022800079F40E94DB0B20EF31E040E050E00E9447
:10229000CD1420FD05C095B182E0892785B9089548
:1022A00029980895FC0120E030E080E090E02617B6
:1022B00037073CF441915191840F951F2F5F3F4F99
:1022C000F6CF0E94D818CB0108951F920F920FB637
:1022D0000F9211242F933F934F935F936F937F93AC
:1022E0008F939F93AF93BF93EF93FF931BB880910E
:1022F000EB039091EC0397FD039695958795959543
:10230000879520910A0130910B018217930704F5FC
:1023100085B18C6385B995B18CE3892785B945B1C1
:102320002091E9033091EA032E5F3F4F81E090E076
:1023300001C0880F2A95EAF7842785B99BB1E091FF
:10234000E903F091EA03EF55FC4F808189278BB9AF
:102350008091E9039091EA03019664E070E00E94A5
:10236000D8189093EA038093E9038091EB0390914E
:10237000EC03019660E071E00E94D8189093EC03A2
:102380008093EB03FF91EF91BF91AF919F918F915C
:102390007F916F915F914F913F912F910F900FBE61
:1023A0000F901F90189510920B0210920A0288EE5F
:1023B00093E0A0E0B0E080930C0290930D02A09314
:1023C0000E02B0930F0286E291E09093090280938F
:1023D00008028EE693E00E94E70B88E391E0909379
:1023E0006F0380936E031092A00310929F03E1E8A5
:1023F000F3E08FE993E0119211928E179F07D9F7BE
:102400001092700310927103109272031092730372
:102410008091740390917503A0917603B091770336
:102420008093780390937903A0937A03B0937B030E
:102430008BE593E00E94E70B88E493E00E94E70BB2
:1024400085E393E00E94E70B82E293E00E94E70BB2
:102450008FE093E00E94E70B8CEF92E00E94E70B85
:1024600089EE92E00E94E70B80E18093E8028CE124
:102470008093E70286E08093E60240E081E697E9F8
:10248000542F537021E009F020E061E0640F30E048
:10249000F901E359FE4F8E179F0730F0821B930B13
:1024A0008D569140462FECCF4093E30221E0E22F7E
:1024B000F0E0ED5BFE4FE491511103C0223009F4CE
:1024C000EF5FF0E031E0320F8E179F0720F08E1B98
:1024D0009F0B232FECCF2093E4028F5F8093E502C4
:1024E0008FE080931402109216020895789484B5B8
:1024F000826084BD84B5816084BD85B5826085BD00
:1025000085B5816085BD80916E00816080936E008D
:10251000109281008091810082608093810080917F
:102520008100816080938100809180008160809330
:1025300080008091B10084608093B1008091B000F0
:1025400081608093B00080917A00846080937A00EB
:1025500080917A00826080937A0080917A00816015
:1025600080937A0080917A00806880937A0010923C
:10257000C1008FEF8AB98BB98EE384B915B8109278
:10258000B0008091B00082608093B0001092B100E2
:102590008091B10082608093B1001092B20084E615
:1025A0008093B300809170008260809370008FE010
:1025B00098E090936A038093690344E650E060E0FA
:1025C00070E040935D0350935E0360935F037093EC
:1025D00060038091610390916203A0916303B091C5
:1025E00064038C599F4FAF4FBF4F80936503909307
:1025F0006603A0936703B093680383ED90E0909324
:1026000057038093560388EE93E0A0E0B0E08093F8
:102610004A0390934B03A0934C03B0934D038091D6
:102620004E0390914F03A0915003B09151038851F4
:102630009C4FAF4FBF4F8093520390935303A0938F
:102640005403B0935503109258038AE496E0909394
:102650004403809343038DE790E0A0E0B0E08093D3
:10266000370390933803A0933903B0933A038091D2
:102670003B0390913C03A0913D03B0913E038358EE
:102680009F4FAF4FBF4F80933F0390934003A09362
:102690004103B093420389E897E09093310380931C
:1026A000300380EA9FE0A0E0B0E0809324039093A1
:1026B0002503A0932603B0932703809128039091CC
:1026C0002903A0912A03B0912B038056904FAF4F5E
:1026D000BF4F80932C0390932D03A0932E03B093B0
:1026E0002F0387EA96E090931E0380931D0388E9E9
:1026F0009AE3A0E0B0E08093110390931203A093BB
:102700001303B09314038091150390911603A091C5
:102710001703B09118038856954CAF4FBF4F809365
:10272000190390931A03A0931B03B0931C0381EE2B
:1027300090E090930B0380930A034093FE02509322
:10274000FF02609300037093010380910203909154
:102750000303A0910403B09105038C599F4FAF4F21
:10276000BF4F8093060390930703A0930803B09391
:1027700009038AE391E19093F8028093F7028EE3D4
:1027800090E0A0E0B0E08093EB029093EC02A09385
:10279000ED02B093EE028091EF029091F002A091D1
:1027A000F102B091F202CE96A11DB11D8093F30209
:1027B0009093F402A093F502B093F6028BE593E0B8
:1027C0000E943F0B88E493E00E943F0B85E393E077
:1027D0000E943F0B82E293E00E943F0B8FE093E068
:1027E0000E943F0B8CEF92E00E943F0B89EE92E03B
:1027F0000E943F0B0E940D0B0E940D0B8EE08093F8
:10280000840181E090E090938601809385010E948D
:10281000DB0BDC01CB01885B9B40A109B1098093F4
:10282000890190938A01A0938B01B0938C01F89455
:102830001092800089E08093810080E293E0909381
:10284000890080938800109285001092840082E0B5
:1028500080936F007894809315021092E10280912A
:10286000140260E00E949F0B81E08093E40188E6FF
:10287000809306021092E5011092070260E088E062
:1028800092E00E947F1081E00E94F00981E090E0D8
:102890000E944C0A88E092E00E94880D87FF36C0B3
:1028A00080E490E090930B0180930A0188EEC82E9B
:1028B00083E0D82EE12CF12C93E0892E912CA12CD1
:1028C000B12CDEE9CAE01AE30E94DB0BA7019601F6
:1028D0000E94CD14CA01B901A50194010E94CD1432
:1028E000672B682B692B49F0D093A103C093A203F7
:1028F000C093A3031093A403E7CF1092A1031092F7
:10290000A2031092A3031092A403DECF0E944A06F2
:102910000E9489070E94A7068AE78093A1038EEE92
:102920008093A2038CE78093A3038CE08093A4039D
:10293000C0E0D0E08EE693E00E94AE102097D1F385
:102940000E940000F7CF052E97FB1EF400940E9412
:10295000BA1457FD07D00E94CD1407FC03D04EF4E3
:102960000C94BA1450954095309521953F4F4F4F98
:102970005F4F089590958095709561957F4F8F4F2B
:102980009F4F08950E94EF14A59F900DB49F900D46
:10299000A49F800D911D11240895A1E21A2EAA1B57
:1029A000BB1BFD010DC0AA1FBB1FEE1FFF1FA217FF
:1029B000B307E407F50720F0A21BB30BE40BF50BFC
:1029C000661F771F881F991F1A9469F76095709585
:1029D000809590959B01AC01BD01CF010895A29F08
:1029E000B001B39FC001A39F700D811D1124911DE3
:1029F000B29F700D811D1124911D08955058BB2761
:102A0000AA270E9416150C9490160E94821638F080
:102A10000E94891620F039F49F3F19F426F40C9493
:102A20007F160EF4E095E7FB0C947916E92F0E94CF
:102A3000A11658F3BA17620773078407950720F0A9
:102A400079F4A6F50C94C3160EF4E0950B2EBA2F6C
:102A5000A02D0B01B90190010C01CA01A0011124A4
:102A6000FF27591B99F0593F50F4503E68F11A1650
:102A7000F040A22F232F342F4427585FF3CF4695E1
:102A800037952795A795F0405395C9F77EF41F1603
:102A9000BA0B620B730B840BBAF09150A1F0FF0FCD
:102AA000BB1F661F771F881FC2F70EC0BA0F621FB9
:102AB000731F841F48F4879577956795B795F795A9
:102AC0009E3F08F0B0CF9395880F08F09927EE0F3E
:102AD0009795879508950E94551608F481E008950A
:102AE0000E9484150C9490160E94891658F00E943A
:102AF000821640F029F45F3F29F00C9479165111A9
:102B00000C94C4160C947F160E94A11668F39923A6
:102B1000B1F3552391F3951B550BBB27AA276217D9
:102B20007307840738F09F5F5F4F220F331F441FE6
:102B3000AA1FA9F335D00E2E3AF0E0E832D091501A
:102B40005040E695001CCAF72BD0FE2F29D0660F07
:102B5000771F881FBB1F261737074807AB07B0E84A
:102B600009F0BB0B802DBF01FF2793585F4F3AF050
:102B70009E3F510578F00C9479160C94C4165F3F73
:102B8000E4F3983ED4F3869577956795B795F795D6
:102B90009F5FC9F7880F911D9695879597F90895BE
:102BA000E1E0660F771F881FBB1F6217730784075A
:102BB000BA0720F0621B730B840BBA0BEE1F88F769
:102BC000E09508950E94E9156894B1110C94C4161B
:102BD00008950E94A91688F09F5798F0B92F992759
:102BE000B751B0F0E1F0660F771F881F991F1AF0F8
:102BF000BA95C9F714C0B13091F00E94C316B1E084
:102C000008950C94C316672F782F8827B85F39F082
:102C1000B93FCCF3869577956795B395D9F73EF490
:102C200090958095709561957F4F8F4F9F4F089538
:102C3000E89409C097FB3EF4909580957095619556
:102C40007F4F8F4F9F4F9923A9F0F92F96E9BB270C
:102C50009395F695879577956795B795F111F8CF88
:102C6000FAF4BB0F11F460FF1BC06F5F7F4F8F4FF3
:102C70009F4F16C0882311F096E911C0772321F0E9
:102C80009EE8872F762F05C0662371F096E8862F81
:102C900070E060E02AF09A95660F771F881FDAF7D8
:102CA000880F9695879597F90895990F0008550F05
:102CB000AA0BE0E8FEEF16161706E807F907C0F0C2
:102CC00012161306E407F50798F0621B730B840BCA
:102CD000950B39F40A2661F0232B242B252B21F4A4
:102CE00008950A2609F4A140A6958FEF811D811D44
:102CF000089597F99F6780E870E060E008959FEF7E
:102D000080EC089500240A94161617061806090682
:102D1000089500240A941216130614060506089551
:102D2000092E0394000C11F4882352F0BB0F40F4D9
:102D3000BF2B11F460FF04C06F5F7F4F8F4F9F4F19
:102D4000089557FD9058440F551F59F05F3F71F09B
:102D50004795880F97FB991F61F09F3F79F0879502
:102D60000895121613061406551FF2CF4695F1DF8B
:102D700008C0161617061806991FF1CF869571051B
:102D8000610508940895E894BB2766277727CB014F
:102D900097F908950E94DD160C9490160E948216F1
:102DA00038F00E94891620F0952311F00C947916C2
:102DB0000C947F1611240C94C4160E94A11670F373
:102DC000959FC1F3950F50E0551F629FF001729FD0
:102DD000BB27F00DB11D639FAA27F00DB11DAA1FDF
:102DE000649F6627B00DA11D661F829F2227B00D2C
:102DF000A11D621F739FB00DA11D621F839FA00DB7
:102E0000611D221F749F3327A00D611D231F849F06
:102E1000600D211D822F762F6A2F11249F5750405D
:102E20009AF0F1F088234AF0EE0FFF1FBB1F661FD8
:102E3000771F881F91505040A9F79E3F510580F0A1
:102E40000C9479160C94C4165F3FE4F3983ED4F3C7
:102E5000869577956795B795F795E7959F5FC1F745
:102E6000FE2B880F911D9695879597F90895FA0185
:102E7000EE0FFF1F309621053105A1F16115710597
:102E800061F48038BFE39B0749F16894903881056D
:102E900061F08038BFEF9B0741F099234AF5FF3F6F
:102EA000E1053105210519F1E8940894E795D90168
:102EB000AA2329F4AB2FBE2FF85FD0F310C0FF5F19
:102EC00070F4A695E0F7F73950F019F0FF3A38F4AE
:102ED0009F779F930DD00F9007FC9058089546F070
:102EE0000C947F1660E070E080E89FE308954FE760
:102EF0009F775F934F933F932F930E9432182F91A8
:102F00003F914F915F910E94CA160C948F1729F43C
:102F100016F00C9479160C94C3160C947F160E942C
:102F2000A916A8F39638A0F707F80F92E8942BE3B8
:102F30003AEA48EB5FE70E94E0160F920F920F9279
:102F40004DB75EB70F920E947A18E8E6F0E00E9453
:102F5000C1174F915F91EF91FF91E595EE1FFF1F14
:102F600049F0FE57E0684427EE0F441FFA95E1F759
:102F70004195550B0E94F4170F9007FE0C94E8172B
:102F80000895DF93CF931F930F93FF92EF92DF92F9
:102F90007B018C01689406C0DA2EEF010E94DD16D9
:102FA000FE01E894A5912591359145915591A6F39F
:102FB000EF010E941615FE019701A801DA9469F746
:102FC000DF90EF90FF900F911F91CF91DF910895C7
:102FD0009B01AC0160E070E080E89FE30C94701509
:102FE0000C9479160C94AE180E94A916D8F3992364
:102FF000C9F3940F511DA3F39150504094F059F030
:10300000882332F0660F771F881F91505040C1F718
:103010009E3F51052CF7880F911D9695879597F93E
:1030200008955F3FACF0983E9CF0BB27869577955E
:103030006795B79508F4B1609395C1F7BB0F58F742
:1030400011F460FFE8CF6F5F7F4F8F4F9F4FE3CF4B
:103050000C94C41616F00C94AE180C947F16689459
:103060000C9479160E94A916A8F39923C1F3AEF324
:10307000DF93CF931F930F93FF92C92FDD278823F0
:103080002AF02197660F771F881FDAF720E030E0DB
:1030900040E85FEB9FE3883920F0803E38F02196CE
:1030A0008F770E94FF14E0E9F0E004C00E94FF1453
:1030B000EDEBF0E00E94C1178B01BE01EC01FB2E8D
:1030C0006F5771097595771F880B990B0E941A1617
:1030D00028E132E741E35FE30E94DD16AF2D98015E
:1030E000AE01FF900F911F91CF91DF910E941615B5
:1030F0000C949016FA01DC01AA0FBB1F9B01AC01D6
:10310000BF5728F4222733274427507820C0B751CF
:1031100090F4AB2F0024469537952795011CA39575
:10312000D2F3002071F0220F331F441FB395DAF35E
:103130000ED00C94FE1461307105A0E88A07B946E0
:1031400030F49B01AC01662777278827907830966A
:1031500021F0208331834283538308959F3F31F0D0
:10316000915020F4879577956795B795880F911DB5
:103170009695879597F90895DB018F939F930E9409
:10318000C214BF91AF91A29F800D911DA39F900D7E
:10319000B29F900D11240895991B79E004C0991FE6
:1031A000961708F0961B881F7A95C9F780950895A1
:1031B00097FB072E16F4009407D077FD09D00E94E4
:1031C0002A1907FC05D03EF4909581959F4F0895EC
:1031D000709561957F4F08950E94EF14B7FF089591
:1031E000821B930B08950F93083090F0982F872F30
:1031F000762F652F542F432F322F22270850F4CFDC
:10320000220F331F441F551F661F771F881F991FEA
:103210000A95B2F70F91089597FB10F816940008DD
:103220000F93083098F00850232F342F452F562F36
:10323000672F782F892F902DF4CF05949795879538
:103240007795679557954795379527950A95AAF7E6
:103250000F910895AA1BBB1B51E107C0AA1FBB1FFA
:10326000A617B70710F0A61BB70B881F991F5A9512
:10327000A9F780959095BC01CD010895EE0FFF1F31
:103280000590F491E02D099481E090E0F8940C947D
:063290004919F894FFCF7C
:1032960000007FC300007FC3E80301004C04FC600C
:1032A600DAF266B6BEE4FEF60000000040102D100D
:1032B6001711000000007F1052102A10780D9C0D87
:0E32C600880D790D0000000040102D10AE1094
:00000001FF
